{
  "address": "0xFAb864dfc24359eCa89851434F7fDdA957e88bef",
  "abi": [
    {
      "inputs": [],
      "name": "InvalidInitialization",
      "type": "error"
    },
    {
      "inputs": [],
      "name": "NotInitializing",
      "type": "error"
    },
    {
      "anonymous": false,
      "inputs": [
        {
          "indexed": false,
          "internalType": "uint64",
          "name": "version",
          "type": "uint64"
        }
      ],
      "name": "Initialized",
      "type": "event"
    },
    {
      "inputs": [
        {
          "internalType": "address",
          "name": "_government",
          "type": "address"
        }
      ],
      "name": "changeGovernment",
      "outputs": [],
      "stateMutability": "nonpayable",
      "type": "function"
    },
    {
      "inputs": [
        {
          "internalType": "bytes",
          "name": "data",
          "type": "bytes"
        }
      ],
      "name": "deposit",
      "outputs": [],
      "stateMutability": "nonpayable",
      "type": "function"
    },
    {
      "inputs": [],
      "name": "getTotalValue",
      "outputs": [
        {
          "internalType": "uint256",
          "name": "",
          "type": "uint256"
        }
      ],
      "stateMutability": "view",
      "type": "function"
    },
    {
      "inputs": [
        {
          "internalType": "address[]",
          "name": "target",
          "type": "address[]"
        },
        {
          "internalType": "uint256[]",
          "name": "value",
          "type": "uint256[]"
        },
        {
          "internalType": "bytes[]",
          "name": "data",
          "type": "bytes[]"
        }
      ],
      "name": "gorvermentExec",
      "outputs": [],
      "stateMutability": "nonpayable",
      "type": "function"
    },
    {
      "inputs": [],
      "name": "government",
      "outputs": [
        {
          "internalType": "address",
          "name": "",
          "type": "address"
        }
      ],
      "stateMutability": "view",
      "type": "function"
    },
    {
      "inputs": [
        {
          "internalType": "address",
          "name": "_treasury",
          "type": "address"
        },
        {
          "internalType": "address",
          "name": "_government",
          "type": "address"
        },
        {
          "internalType": "address",
          "name": "_usdc",
          "type": "address"
        },
        {
          "internalType": "address",
          "name": "_pool",
          "type": "address"
        }
      ],
      "name": "init",
      "outputs": [],
      "stateMutability": "nonpayable",
      "type": "function"
    },
    {
      "inputs": [],
      "name": "pool",
      "outputs": [
        {
          "internalType": "address",
          "name": "",
          "type": "address"
        }
      ],
      "stateMutability": "view",
      "type": "function"
    },
    {
      "inputs": [],
      "name": "treasury",
      "outputs": [
        {
          "internalType": "address",
          "name": "",
          "type": "address"
        }
      ],
      "stateMutability": "view",
      "type": "function"
    },
    {
      "inputs": [],
      "name": "usdc",
      "outputs": [
        {
          "internalType": "address",
          "name": "",
          "type": "address"
        }
      ],
      "stateMutability": "view",
      "type": "function"
    },
    {
      "inputs": [
        {
          "internalType": "bytes",
          "name": "data",
          "type": "bytes"
        }
      ],
      "name": "withdraw",
      "outputs": [],
      "stateMutability": "nonpayable",
      "type": "function"
    }
  ],
  "transactionHash": "0xad0caff3b245e9b4effa8acb70df8fd6ed679abd646db65551143a1b43e5411c",
  "args": [],
  "numDeployments": 1,
  "solcInputHash": "5b55a158eeec5b7f9193603b380a49d6",
  "bytecode": "0x608080604052346100165761089c908161001c8239f35b600080fdfe6080604052600436101561001257600080fd5b6000803560e01c90816306552ff3146100ba575080630968f264146100b557806316f0115b146100b05780632672f526146100ab5780633e413bee146100a65780635b58a289146100a157806361d027b31461009c5780636844a2e91461009757806398b1e06a146100925763caa648b41461008d57600080fd5b61074e565b61068e565b610643565b61061a565b610516565b6104bc565b610493565b61046a565b610391565b346102a15760803660031901126102a1576004356100d7816102a4565b602435906100e4826102a4565b6044356100f0816102a4565b606435906100fd826102a4565b600080516020610847833981519152549367ffffffffffffffff60ff8660401c1615951680159081610299575b600114908161028f575b159081610286575b5061027557600080516020610847833981519152805467ffffffffffffffff191660011790556101b4938561020757929060018060a01b0392838092816bffffffffffffffffffffffff60a01b9716876000541617600055168560015416176001551683600254161760025516906003541617600355565b6101bb5780f35b600080516020610847833981519152805460ff60401b1916905560016080527fc7f505b2f371ae2175ee4913f4499e1f2633a7b5936321eed1cdaeb6115181d2607f1960a0016080a180f35b600080516020610847833981519152805460ff60401b191668010000000000000000179055929060018060a01b0392838092816bffffffffffffffffffffffff60a01b9716876000541617600055168560015416176001551683600254161760025516906003541617600355565b63f92ee8a960e01b60805260046080fd5b9050158761013c565b303b159150610134565b86915061012a565b80fd5b6001600160a01b038116036102b557565b600080fd5b634e487b7160e01b600052604160045260246000fd5b67ffffffffffffffff81116102e457604052565b6102ba565b90601f8019910116810190811067ffffffffffffffff8211176102e457604052565b92919267ffffffffffffffff82116102e45760405191610335601f8201601f1916602001846102e9565b8294818452818301116102b5578281602093846000960137010152565b60206003198201126102b5576004359067ffffffffffffffff82116102b557806023830112156102b55781602461038e9360040135910161030b565b90565b346102b55761042060206103a436610352565b6000546001600160a01b03908116916103d0906103c233851461076a565b8480825183010191016107a3565b6003546002549216916000906001600160a01b0316604051631a4ca37b60e21b81526001600160a01b03918216600482015260248101939093529093166044820152938492839182906064820190565b03925af1801561045a5761043057005b6104519060203d602011610453575b61044981836102e9565b8101906107a3565b005b503d61043f565b610816565b60009103126102b557565b346102b55760003660031901126102b5576003546040516001600160a01b039091168152602090f35b346102b55760003660031901126102b5576001546040516001600160a01b039091168152602090f35b346102b55760003660031901126102b5576002546040516001600160a01b039091168152602090f35b9181601f840112156102b55782359167ffffffffffffffff83116102b5576020808501948460051b0101116102b557565b346102b55760603660031901126102b55767ffffffffffffffff6004358181116102b5576105489036906004016104e5565b90916024358181116102b5576105629036906004016104e5565b926044358381116102b55761057b9036906004016104e5565b9160019661059460018060a01b036001541633146107b2565b60005b8281106105a057005b6105ab818484610806565b35906105b6826102a4565b6105c1818a89610806565b3586821015610615578160051b860135601e19873603018112156102b5578601928335938a85116102b5576020019184360383136102b55761060961060f938e96369161030b565b91610822565b01610597565b6107f0565b346102b55760003660031901126102b5576000546040516001600160a01b039091168152602090f35b346102b55760203660031901126102b557600435610660816102a4565b600154906001600160a01b039061067a33838516146107b2565b6001600160a01b0319909216911617600155005b346102b5576106cc61069f36610352565b6000805490926001600160a01b039284926106bd908516331461076a565b602080825183010191016107a3565b600354600254919316906001600160a01b031690803b1561074a5760405163617ba03760e01b81526001600160a01b03929092166004830152602482019390935230604482015260006064820152918290608490829084905af1801561045a57610734575080f35b80610741610747926102d0565b8061045f565b80f35b8280fd5b346102b55760003660031901126102b557602060405160008152f35b1561077157565b60405162461bcd60e51b815260206004820152600a60248201526913db9b1e481859d95b9d60b21b6044820152606490fd5b908160209103126102b5575190565b156107b957565b60405162461bcd60e51b815260206004820152600f60248201526e4f6e6c7920676f7665726e616e636560881b6044820152606490fd5b634e487b7160e01b600052603260045260246000fd5b91908110156106155760051b0190565b6040513d6000823e3d90fd5b916000928392602083519301915af1604051903d6000833e156108425750565b3d90fdfef0c57e16840df040f15088dc2f81fe391c3923bec73e23a9662efc9c229c6a00a2646970667358221220f35bcb6edda5269db686518726dfae4c8a5a5da2a37ed6ee72883d23c68cbd5064736f6c63430008180033",
  "devdoc": {
    "errors": {
      "InvalidInitialization()": [
        {
          "details": "The contract is already initialized."
        }
      ],
      "NotInitializing()": [
        {
          "details": "The contract is not initializing."
        }
      ]
    },
    "events": {
      "Initialized(uint64)": {
        "details": "Triggered when the contract has been initialized or reinitialized."
      }
    },
    "kind": "dev",
    "methods": {},
    "version": 1
  },
  "userdoc": {
    "kind": "user",
    "methods": {},
    "version": 1
  },
  "storageLayout": {
    "storage": [
      {
        "astId": 1734,
        "contract": "contracts/modules/arbitrum/AAVELendingStakingUSDCModules.sol:AAVELendingStakingUSDCModule",
        "label": "treasury",
        "offset": 0,
        "slot": "0",
        "type": "t_address"
      },
      {
        "astId": 1736,
        "contract": "contracts/modules/arbitrum/AAVELendingStakingUSDCModules.sol:AAVELendingStakingUSDCModule",
        "label": "government",
        "offset": 0,
        "slot": "1",
        "type": "t_address"
      },
      {
        "astId": 1738,
        "contract": "contracts/modules/arbitrum/AAVELendingStakingUSDCModules.sol:AAVELendingStakingUSDCModule",
        "label": "usdc",
        "offset": 0,
        "slot": "2",
        "type": "t_address"
      },
      {
        "astId": 1740,
        "contract": "contracts/modules/arbitrum/AAVELendingStakingUSDCModules.sol:AAVELendingStakingUSDCModule",
        "label": "pool",
        "offset": 0,
        "slot": "3",
        "type": "t_address"
      }
    ],
    "types": {
      "t_address": {
        "encoding": "inplace",
        "label": "address",
        "numberOfBytes": "20"
      }
    }
  }
}