{
  "address": "0xC564acfCDd08416acc96EeC1587DD038fD1EBc19",
  "abi": [
    {
      "inputs": [
        {
          "internalType": "address",
          "name": "asset",
          "type": "address"
        },
        {
          "internalType": "uint256",
          "name": "amount",
          "type": "uint256"
        },
        {
          "internalType": "address",
          "name": "onBehalfOf",
          "type": "address"
        },
        {
          "internalType": "uint16",
          "name": "referralCode",
          "type": "uint16"
        }
      ],
      "name": "supply",
      "outputs": [],
      "stateMutability": "nonpayable",
      "type": "function"
    },
    {
      "inputs": [
        {
          "internalType": "address",
          "name": "asset",
          "type": "address"
        },
        {
          "internalType": "uint256",
          "name": "amount",
          "type": "uint256"
        },
        {
          "internalType": "address",
          "name": "to",
          "type": "address"
        }
      ],
      "name": "withdraw",
      "outputs": [
        {
          "internalType": "uint256",
          "name": "",
          "type": "uint256"
        }
      ],
      "stateMutability": "nonpayable",
      "type": "function"
    }
  ],
  "transactionHash": "0x74d0367dcb9e11f75c06fe21dbdaa39f8bce953e00f0a67655190891f43b5899",
  "args": [],
  "numDeployments": 1,
  "solcInputHash": "5b55a158eeec5b7f9193603b380a49d6",
  "bytecode": "0x60808060405234610016576102be908161001c8239f35b600080fdfe60806040818152600436101561001457600080fd5b600091823560e01c908163617ba037146100e157506369328dec1461003857600080fd5b346100dd5760603660031901126100dd57610051610207565b90602435916020610060610222565b835163a9059cbb60e01b81526001600160a01b0391821660048201526024810186905292839160449183918991165af180156100d357602094506100a6575b5051908152f35b6100c590843d86116100cc575b6100bd8183610238565b810190610270565b503861009f565b503d6100b3565b82513d86823e3d90fd5b5080fd5b905034610203576080366003190112610203576100fc610207565b610104610222565b916064359061ffff82168092036101ff576020816064818960018060a01b0380986323b872dd60e01b84523360048501523060248501526024356044850152165af180156101f5576101d6575b5061019a5733911603610162575080f35b5162461bcd60e51b815260206004820152601260248201527124b73b30b634b21037b72132b430b63327b360711b6044820152606490fd5b825162461bcd60e51b8152602060048201526015602482015274496e76616c696420726566657272616c20636f646560581b6044820152606490fd5b6101ee9060203d6020116100cc576100bd8183610238565b5038610151565b85513d88823e3d90fd5b8580fd5b8280fd5b600435906001600160a01b038216820361021d57565b600080fd5b604435906001600160a01b038216820361021d57565b90601f8019910116810190811067ffffffffffffffff82111761025a57604052565b634e487b7160e01b600052604160045260246000fd5b9081602091031261021d5751801515810361021d579056fea26469706673582212200244397ee8c43ea1755a0a6d622484678d0febc7f060e1fef5233e2934a4b20664736f6c63430008180033",
  "devdoc": {
    "kind": "dev",
    "methods": {
      "supply(address,uint256,address,uint16)": {
        "params": {
          "amount": "The amount to be supplied",
          "asset": "The address of the underlying asset to supply",
          "onBehalfOf": "The address that will receive the aTokens, same as msg.sender if the user   wants to receive them on his own wallet, or a different address if the beneficiary of aTokens   is a different wallet",
          "referralCode": "Code used to register the integrator originating the operation, for potential rewards.   0 if the action is executed directly by the user, without any middle-man"
        }
      },
      "withdraw(address,uint256,address)": {
        "params": {
          "amount": "The underlying amount to be withdrawn   - Send the value type(uint256).max in order to withdraw the whole aToken balance",
          "asset": "The address of the underlying asset to withdraw",
          "to": "The address that will receive the underlying, same as msg.sender if the user   wants to receive it on his own wallet, or a different address if the beneficiary is a   different wallet"
        },
        "returns": {
          "_0": "The final amount withdrawn"
        }
      }
    },
    "version": 1
  },
  "userdoc": {
    "kind": "user",
    "methods": {
      "supply(address,uint256,address,uint16)": {
        "notice": "Supplies an `amount` of underlying asset into the reserve, receiving in return overlying aTokens. - E.g. User supplies 100 USDC and gets in return 100 aUSDC"
      },
      "withdraw(address,uint256,address)": {
        "notice": "Withdraws an `amount` of underlying asset from the reserve, burning the equivalent aTokens owned E.g. User has 100 aUSDC, calls withdraw() and receives 100 USDC, burning the 100 aUSDC"
      }
    },
    "version": 1
  },
  "storageLayout": {
    "storage": [],
    "types": null
  }
}