{
  "address": "0xfB2b64BbF6e5255E5BA2A7989DE4Db6519E1663C",
  "abi": [
    {
      "inputs": [],
      "name": "AccessControlBadConfirmation",
      "type": "error"
    },
    {
      "inputs": [
        {
          "internalType": "address",
          "name": "account",
          "type": "address"
        },
        {
          "internalType": "bytes32",
          "name": "neededRole",
          "type": "bytes32"
        }
      ],
      "name": "AccessControlUnauthorizedAccount",
      "type": "error"
    },
    {
      "inputs": [],
      "name": "InvalidInitialization",
      "type": "error"
    },
    {
      "inputs": [],
      "name": "NotInitializing",
      "type": "error"
    },
    {
      "anonymous": false,
      "inputs": [
        {
          "indexed": false,
          "internalType": "uint64",
          "name": "version",
          "type": "uint64"
        }
      ],
      "name": "Initialized",
      "type": "event"
    },
    {
      "anonymous": false,
      "inputs": [
        {
          "indexed": true,
          "internalType": "bytes32",
          "name": "role",
          "type": "bytes32"
        },
        {
          "indexed": true,
          "internalType": "bytes32",
          "name": "previousAdminRole",
          "type": "bytes32"
        },
        {
          "indexed": true,
          "internalType": "bytes32",
          "name": "newAdminRole",
          "type": "bytes32"
        }
      ],
      "name": "RoleAdminChanged",
      "type": "event"
    },
    {
      "anonymous": false,
      "inputs": [
        {
          "indexed": true,
          "internalType": "bytes32",
          "name": "role",
          "type": "bytes32"
        },
        {
          "indexed": true,
          "internalType": "address",
          "name": "account",
          "type": "address"
        },
        {
          "indexed": true,
          "internalType": "address",
          "name": "sender",
          "type": "address"
        }
      ],
      "name": "RoleGranted",
      "type": "event"
    },
    {
      "anonymous": false,
      "inputs": [
        {
          "indexed": true,
          "internalType": "bytes32",
          "name": "role",
          "type": "bytes32"
        },
        {
          "indexed": true,
          "internalType": "address",
          "name": "account",
          "type": "address"
        },
        {
          "indexed": true,
          "internalType": "address",
          "name": "sender",
          "type": "address"
        }
      ],
      "name": "RoleRevoked",
      "type": "event"
    },
    {
      "inputs": [],
      "name": "AGENT_ROLE",
      "outputs": [
        {
          "internalType": "bytes32",
          "name": "",
          "type": "bytes32"
        }
      ],
      "stateMutability": "view",
      "type": "function"
    },
    {
      "inputs": [
        {
          "internalType": "address",
          "name": "module",
          "type": "address"
        },
        {
          "internalType": "uint256",
          "name": "amount",
          "type": "uint256"
        },
        {
          "internalType": "uint256",
          "name": "value",
          "type": "uint256"
        },
        {
          "internalType": "bytes",
          "name": "data",
          "type": "bytes"
        }
      ],
      "name": "ApproveAndCallModule",
      "outputs": [],
      "stateMutability": "nonpayable",
      "type": "function"
    },
    {
      "inputs": [],
      "name": "DEFAULT_ADMIN_ROLE",
      "outputs": [
        {
          "internalType": "bytes32",
          "name": "",
          "type": "bytes32"
        }
      ],
      "stateMutability": "view",
      "type": "function"
    },
    {
      "inputs": [],
      "name": "GOVERNMENT_ROLE",
      "outputs": [
        {
          "internalType": "bytes32",
          "name": "",
          "type": "bytes32"
        }
      ],
      "stateMutability": "view",
      "type": "function"
    },
    {
      "inputs": [
        {
          "internalType": "address",
          "name": "",
          "type": "address"
        }
      ],
      "name": "_modules",
      "outputs": [
        {
          "internalType": "bool",
          "name": "",
          "type": "bool"
        }
      ],
      "stateMutability": "view",
      "type": "function"
    },
    {
      "inputs": [
        {
          "internalType": "address",
          "name": "newGovernment",
          "type": "address"
        }
      ],
      "name": "changeGovernment",
      "outputs": [],
      "stateMutability": "nonpayable",
      "type": "function"
    },
    {
      "inputs": [
        {
          "internalType": "address",
          "name": "module",
          "type": "address"
        }
      ],
      "name": "disableModule",
      "outputs": [],
      "stateMutability": "nonpayable",
      "type": "function"
    },
    {
      "inputs": [
        {
          "internalType": "address",
          "name": "module",
          "type": "address"
        }
      ],
      "name": "enableModule",
      "outputs": [],
      "stateMutability": "nonpayable",
      "type": "function"
    },
    {
      "inputs": [
        {
          "internalType": "bytes32",
          "name": "role",
          "type": "bytes32"
        }
      ],
      "name": "getRoleAdmin",
      "outputs": [
        {
          "internalType": "bytes32",
          "name": "",
          "type": "bytes32"
        }
      ],
      "stateMutability": "view",
      "type": "function"
    },
    {
      "inputs": [
        {
          "internalType": "address[]",
          "name": "target",
          "type": "address[]"
        },
        {
          "internalType": "uint256[]",
          "name": "value",
          "type": "uint256[]"
        },
        {
          "internalType": "bytes[]",
          "name": "data",
          "type": "bytes[]"
        }
      ],
      "name": "gorvermentExec",
      "outputs": [],
      "stateMutability": "nonpayable",
      "type": "function"
    },
    {
      "inputs": [
        {
          "internalType": "bytes32",
          "name": "role",
          "type": "bytes32"
        },
        {
          "internalType": "address",
          "name": "account",
          "type": "address"
        }
      ],
      "name": "grantRole",
      "outputs": [],
      "stateMutability": "nonpayable",
      "type": "function"
    },
    {
      "inputs": [
        {
          "internalType": "bytes32",
          "name": "role",
          "type": "bytes32"
        },
        {
          "internalType": "address",
          "name": "account",
          "type": "address"
        }
      ],
      "name": "hasRole",
      "outputs": [
        {
          "internalType": "bool",
          "name": "",
          "type": "bool"
        }
      ],
      "stateMutability": "view",
      "type": "function"
    },
    {
      "inputs": [
        {
          "internalType": "address",
          "name": "_token",
          "type": "address"
        },
        {
          "internalType": "address",
          "name": "_agent",
          "type": "address"
        },
        {
          "internalType": "address",
          "name": "_government",
          "type": "address"
        }
      ],
      "name": "init",
      "outputs": [],
      "stateMutability": "nonpayable",
      "type": "function"
    },
    {
      "inputs": [
        {
          "internalType": "bytes32",
          "name": "role",
          "type": "bytes32"
        },
        {
          "internalType": "address",
          "name": "callerConfirmation",
          "type": "address"
        }
      ],
      "name": "renounceRole",
      "outputs": [],
      "stateMutability": "nonpayable",
      "type": "function"
    },
    {
      "inputs": [
        {
          "internalType": "bytes32",
          "name": "role",
          "type": "bytes32"
        },
        {
          "internalType": "address",
          "name": "account",
          "type": "address"
        }
      ],
      "name": "revokeRole",
      "outputs": [],
      "stateMutability": "nonpayable",
      "type": "function"
    },
    {
      "inputs": [
        {
          "internalType": "bytes4",
          "name": "interfaceId",
          "type": "bytes4"
        }
      ],
      "name": "supportsInterface",
      "outputs": [
        {
          "internalType": "bool",
          "name": "",
          "type": "bool"
        }
      ],
      "stateMutability": "view",
      "type": "function"
    },
    {
      "inputs": [],
      "name": "token",
      "outputs": [
        {
          "internalType": "address",
          "name": "",
          "type": "address"
        }
      ],
      "stateMutability": "view",
      "type": "function"
    },
    {
      "inputs": [
        {
          "internalType": "address",
          "name": "_token",
          "type": "address"
        },
        {
          "internalType": "address",
          "name": "module",
          "type": "address"
        },
        {
          "internalType": "uint256",
          "name": "amount",
          "type": "uint256"
        }
      ],
      "name": "withdrawFromModule",
      "outputs": [],
      "stateMutability": "nonpayable",
      "type": "function"
    }
  ],
  "transactionHash": "0x69d94f80d0d410100d3bb0dc126e679c669b945b80151aa88fa6184840800ba0",
  "args": [],
  "numDeployments": 1,
  "solcInputHash": "5b55a158eeec5b7f9193603b380a49d6",
  "bytecode": "0x6080806040523461001657610ee7908161001c8239f35b600080fdfe6080604052600436101561001257600080fd5b60003560e01c806301ffc9a7146101375780630eb7dc0c14610132578063184b95591461012d57806322459e1814610128578063248a9ca3146101235780632f2ff15d1461011e57806336568abe146101195780635b58a28914610114578063610b59251461010f5780636844a2e91461010a57806391d14854146101055780639cbed58214610100578063a217fddf146100fb578063a95f5246146100f6578063bf95df23146100f1578063d547741f146100ec578063e1e2fc0c146100e75763fc0c546a146100e257600080fd5b61095c565b610878565b6107a5565b610763565b61071d565b610701565b6106d8565b610675565b61063e565b6105f2565b6104fd565b610481565b610432565b6103f6565b6103cd565b61027e565b6101a3565b3461018d57602036600319011261018d5760043563ffffffff60e01b811680910361018d57602090637965db0b60e01b811490811561017c575b506040519015158152f35b6301ffc9a760e01b14905038610171565b600080fd5b6001600160a01b0381160361018d57565b3461018d57606036600319011261018d576004356101c081610192565b602061023e602435926101d284610192565b6101da610ad5565b6001600160a01b0384811660009081526001855260409020549094906102029060ff16610985565b6040516323b872dd60e01b81526001600160a01b0390911660048201523060248201526044803590820152938492839160009183906064820190565b0393165af180156102795761024f57005b6102709060203d602011610272575b610268818361080a565b8101906109c9565b005b503d61025e565b6109e1565b3461018d57606036600319011261018d5760043561029b81610192565b602435906102a882610192565b6044356102b481610192565b600080516020610e92833981519152549267ffffffffffffffff60ff8560401c16159416801590816103c5575b60011490816103bb575b1590816103b2575b506103a057600080516020610e92833981519152805467ffffffffffffffff191660011790556103279284610376576109ed565b61032d57005b600080516020610e92833981519152805460ff60401b19169055604051600181527fc7f505b2f371ae2175ee4913f4499e1f2633a7b5936321eed1cdaeb6115181d290602090a1005b600080516020610e92833981519152805460ff60401b1916680100000000000000001790556109ed565b60405163f92ee8a960e01b8152600490fd5b905015386102f3565b303b1591506102eb565b8591506102e1565b3461018d57600036600319011261018d576020604051600080516020610e528339815191528152f35b3461018d57602036600319011261018d57600435600052600080516020610e728339815191526020526020600160406000200154604051908152f35b3461018d57604036600319011261018d5761027060243560043561045582610192565b80600052600080516020610e7283398151915260205261047c600160406000200154610b85565b610cda565b3461018d57604036600319011261018d5760243561049e81610192565b336001600160a01b038216036104ba5761027090600435610dd3565b60405163334bd91960e11b8152600490fd5b9181601f8401121561018d5782359167ffffffffffffffff831161018d576020808501948460051b01011161018d57565b3461018d57606036600319011261018d5767ffffffffffffffff60043581811161018d5761052f9036906004016104cc565b60243583811161018d576105479036906004016104cc565b9260443585811161018d576105609036906004016104cc565b93909161056b610b3f565b60005b82811061057757005b610582818484610ac5565b359061058d82610192565b610598818988610ac5565b35878210156105ed578160051b860135601e198736030181121561018d578601928335938b851161018d5760200191843603831361018d576105e16105e7936001963691610831565b91610e0d565b0161056e565b610aaf565b3461018d57602036600319011261018d5760043561060f81610192565b610617610b3f565b6001600160a01b03166000908152600160208190526040909120805460ff19169091179055005b3461018d57602036600319011261018d5761027060043561065e81610192565b610666610b3f565b61066f33610d14565b50610bb3565b3461018d57604036600319011261018d57602060ff6106cc60243561069981610192565b600435600052600080516020610e72833981519152845260406000209060018060a01b0316600052602052604060002090565b54166040519015158152f35b3461018d57600036600319011261018d576020604051600080516020610e328339815191528152f35b3461018d57600036600319011261018d57602060405160008152f35b3461018d57602036600319011261018d5760043561073a81610192565b610742610b3f565b6001600160a01b03166000908152600160205260409020805460ff19169055005b3461018d57602036600319011261018d5760043561078081610192565b60018060a01b03166000526001602052602060ff604060002054166040519015158152f35b3461018d57604036600319011261018d576102706024356004356107c882610192565b80600052600080516020610e728339815191526020526107ef600160406000200154610b85565b610dd3565b634e487b7160e01b600052604160045260246000fd5b90601f8019910116810190811067ffffffffffffffff82111761082c57604052565b6107f4565b92919267ffffffffffffffff821161082c576040519161085b601f8201601f19166020018461080a565b82948184528183011161018d578281602093846000960137010152565b3461018d57608036600319011261018d5760043561089581610192565b60643567ffffffffffffffff811161018d573660238201121561018d576108c6903690602481600401359101610831565b6108ce610ad5565b60018060a01b039060009282602085948554169160446040518097819363a9059cbb60e01b835287169586600484015260243560248401525af19384156102795761093a9461093d575b508452600160205260408420546109319060ff16610985565b60443590610e0d565b80f35b6109559060203d60201161027257610268818361080a565b5038610918565b3461018d57600036600319011261018d576000546040516001600160a01b039091168152602090f35b1561098c57565b60405162461bcd60e51b8152602060048201526015602482015274135bd91d5b19481b9bdd081c9959da5cdd195c9959605a1b6044820152606490fd5b9081602091031261018d5751801515810361018d5790565b6040513d6000823e3d90fd5b9160ff600080516020610e928339815191525460401c1615610a9d57600080546001600160a01b0319166001600160a01b03909416939093178355610a359161066f90610c7b565b50600080516020610e5283398151915290818152600080516020610e7283398151915260205260016040822001917fbd79b86ffe0ab8e8776151514217cd7cacd52c909f66475c3af44e129f0b00ff835492600080516020610e3283398151915280955580a4565b604051631afcd79f60e31b8152600490fd5b634e487b7160e01b600052603260045260246000fd5b91908110156105ed5760051b0190565b3360009081527f81cf8a8d68c3bf977ff8d17e8ef6f30dbea1776614c7d2258c5ab1b17338333f60205260409020600080516020610e528339815191529060ff905b541615610b215750565b6044906040519063e2517d3f60e01b82523360048301526024820152fd5b3360009081527f60244dca0d87c81b46c8e37a06cef7a8f3852c01dfdd6bfb803bd735e3f1663a60205260409020600080516020610e328339815191529060ff90610b17565b6000818152600080516020610e7283398151915260209081526040808320338452909152902060ff90610b17565b6001600160a01b03811660009081527f60244dca0d87c81b46c8e37a06cef7a8f3852c01dfdd6bfb803bd735e3f1663a60205260408120600080516020610e3283398151915290600080516020610e728339815191529060ff905b5416610c7457818352602090815260408084206001600160a01b038616600090815292529020805460ff1916600117905533926001600160a01b0316917f2f8788117e7eff1d82e926ec794901d17c78024a50270940304540a733656f0d9080a4600190565b5050905090565b6001600160a01b03811660009081527f81cf8a8d68c3bf977ff8d17e8ef6f30dbea1776614c7d2258c5ab1b17338333f60205260408120600080516020610e5283398151915290600080516020610e728339815191529060ff90610c0e565b6000818152600080516020610e72833981519152602081815260408084206001600160a01b0387168552909152822091929160ff90610c0e565b6001600160a01b03811660009081527f60244dca0d87c81b46c8e37a06cef7a8f3852c01dfdd6bfb803bd735e3f1663a60205260408120600080516020610e3283398151915290600080516020610e728339815191529060ff905b541615610c7457818352602090815260408084206001600160a01b038616600090815292529020805460ff1916905533926001600160a01b0316917ff6391f5c32d9c69d2a47ea670b442974b53935d1edc7fd64eb21e047a839171b9080a4600190565b6000818152600080516020610e72833981519152602081815260408084206001600160a01b0387168552909152822091929160ff90610d6f565b916000928392602083519301915af1604051903d6000833e15610e2d5750565b3d90fdfed9d062b29c8756d894f301c5167d214c34d627724cd7fc859ab9329c9330cf51cab5a0bfe0b79d2c4b1c2e02599fa044d115b7511f9659307cb427695096770902dd7bc7dec4dceedda775e58dd541e08a116c6c53815c0bd028192f7b626800f0c57e16840df040f15088dc2f81fe391c3923bec73e23a9662efc9c229c6a00a2646970667358221220128190b4ebcfd1023d80257eb81935d25eb7b46170a436ccc02eb12eca967fa564736f6c63430008180033",
  "devdoc": {
    "errors": {
      "AccessControlBadConfirmation()": [
        {
          "details": "The caller of a function is not the expected one. NOTE: Don't confuse with {AccessControlUnauthorizedAccount}."
        }
      ],
      "AccessControlUnauthorizedAccount(address,bytes32)": [
        {
          "details": "The `account` is missing a role."
        }
      ],
      "InvalidInitialization()": [
        {
          "details": "The contract is already initialized."
        }
      ],
      "NotInitializing()": [
        {
          "details": "The contract is not initializing."
        }
      ]
    },
    "events": {
      "Initialized(uint64)": {
        "details": "Triggered when the contract has been initialized or reinitialized."
      },
      "RoleAdminChanged(bytes32,bytes32,bytes32)": {
        "details": "Emitted when `newAdminRole` is set as ``role``'s admin role, replacing `previousAdminRole` `DEFAULT_ADMIN_ROLE` is the starting admin for all roles, despite {RoleAdminChanged} not being emitted signaling this."
      },
      "RoleGranted(bytes32,address,address)": {
        "details": "Emitted when `account` is granted `role`. `sender` is the account that originated the contract call. This account bears the admin role (for the granted role). Expected in cases where the role was granted using the internal {AccessControl-_grantRole}."
      },
      "RoleRevoked(bytes32,address,address)": {
        "details": "Emitted when `account` is revoked `role`. `sender` is the account that originated the contract call:   - if using `revokeRole`, it is the admin role bearer   - if using `renounceRole`, it is the role bearer (i.e. `account`)"
      }
    },
    "kind": "dev",
    "methods": {
      "getRoleAdmin(bytes32)": {
        "details": "Returns the admin role that controls `role`. See {grantRole} and {revokeRole}. To change a role's admin, use {_setRoleAdmin}."
      },
      "grantRole(bytes32,address)": {
        "details": "Grants `role` to `account`. If `account` had not been already granted `role`, emits a {RoleGranted} event. Requirements: - the caller must have ``role``'s admin role. May emit a {RoleGranted} event."
      },
      "hasRole(bytes32,address)": {
        "details": "Returns `true` if `account` has been granted `role`."
      },
      "renounceRole(bytes32,address)": {
        "details": "Revokes `role` from the calling account. Roles are often managed via {grantRole} and {revokeRole}: this function's purpose is to provide a mechanism for accounts to lose their privileges if they are compromised (such as when a trusted device is misplaced). If the calling account had been revoked `role`, emits a {RoleRevoked} event. Requirements: - the caller must be `callerConfirmation`. May emit a {RoleRevoked} event."
      },
      "revokeRole(bytes32,address)": {
        "details": "Revokes `role` from `account`. If `account` had been granted `role`, emits a {RoleRevoked} event. Requirements: - the caller must have ``role``'s admin role. May emit a {RoleRevoked} event."
      },
      "supportsInterface(bytes4)": {
        "details": "See {IERC165-supportsInterface}."
      }
    },
    "version": 1
  },
  "userdoc": {
    "kind": "user",
    "methods": {},
    "version": 1
  },
  "storageLayout": {
    "storage": [
      {
        "astId": 1397,
        "contract": "contracts/EVMTreasury.sol:EVMTreasury",
        "label": "token",
        "offset": 0,
        "slot": "0",
        "type": "t_address"
      },
      {
        "astId": 1401,
        "contract": "contracts/EVMTreasury.sol:EVMTreasury",
        "label": "_modules",
        "offset": 0,
        "slot": "1",
        "type": "t_mapping(t_address,t_bool)"
      }
    ],
    "types": {
      "t_address": {
        "encoding": "inplace",
        "label": "address",
        "numberOfBytes": "20"
      },
      "t_bool": {
        "encoding": "inplace",
        "label": "bool",
        "numberOfBytes": "1"
      },
      "t_mapping(t_address,t_bool)": {
        "encoding": "mapping",
        "key": "t_address",
        "label": "mapping(address => bool)",
        "numberOfBytes": "32",
        "value": "t_bool"
      }
    }
  }
}