{
  "address": "0xd99Eeb90cfE05FB7840399A46b854947E2FA71ed",
  "abi": [
    {
      "inputs": [],
      "name": "AccessControlBadConfirmation",
      "type": "error"
    },
    {
      "inputs": [
        {
          "internalType": "address",
          "name": "account",
          "type": "address"
        },
        {
          "internalType": "bytes32",
          "name": "neededRole",
          "type": "bytes32"
        }
      ],
      "name": "AccessControlUnauthorizedAccount",
      "type": "error"
    },
    {
      "inputs": [],
      "name": "InvalidInitialization",
      "type": "error"
    },
    {
      "inputs": [],
      "name": "NotInitializing",
      "type": "error"
    },
    {
      "inputs": [
        {
          "internalType": "address",
          "name": "token",
          "type": "address"
        }
      ],
      "name": "SafeERC20FailedOperation",
      "type": "error"
    },
    {
      "anonymous": false,
      "inputs": [
        {
          "indexed": true,
          "internalType": "address",
          "name": "user",
          "type": "address"
        },
        {
          "indexed": false,
          "internalType": "uint256",
          "name": "tokenAmount",
          "type": "uint256"
        },
        {
          "indexed": false,
          "internalType": "uint256",
          "name": "lpAmount",
          "type": "uint256"
        }
      ],
      "name": "Deposited",
      "type": "event"
    },
    {
      "anonymous": false,
      "inputs": [
        {
          "indexed": false,
          "internalType": "uint256",
          "name": "oldFee",
          "type": "uint256"
        },
        {
          "indexed": false,
          "internalType": "uint256",
          "name": "newFee",
          "type": "uint256"
        }
      ],
      "name": "FeeUpdated",
      "type": "event"
    },
    {
      "anonymous": false,
      "inputs": [
        {
          "indexed": true,
          "internalType": "address",
          "name": "oldGovernment",
          "type": "address"
        },
        {
          "indexed": true,
          "internalType": "address",
          "name": "newGovernment",
          "type": "address"
        }
      ],
      "name": "GovernmentChanged",
      "type": "event"
    },
    {
      "anonymous": false,
      "inputs": [
        {
          "indexed": false,
          "internalType": "uint64",
          "name": "version",
          "type": "uint64"
        }
      ],
      "name": "Initialized",
      "type": "event"
    },
    {
      "anonymous": false,
      "inputs": [
        {
          "indexed": false,
          "internalType": "uint256",
          "name": "oldRate",
          "type": "uint256"
        },
        {
          "indexed": false,
          "internalType": "uint256",
          "name": "newRate",
          "type": "uint256"
        }
      ],
      "name": "RateUpdated",
      "type": "event"
    },
    {
      "anonymous": false,
      "inputs": [
        {
          "indexed": true,
          "internalType": "bytes32",
          "name": "role",
          "type": "bytes32"
        },
        {
          "indexed": true,
          "internalType": "bytes32",
          "name": "previousAdminRole",
          "type": "bytes32"
        },
        {
          "indexed": true,
          "internalType": "bytes32",
          "name": "newAdminRole",
          "type": "bytes32"
        }
      ],
      "name": "RoleAdminChanged",
      "type": "event"
    },
    {
      "anonymous": false,
      "inputs": [
        {
          "indexed": true,
          "internalType": "bytes32",
          "name": "role",
          "type": "bytes32"
        },
        {
          "indexed": true,
          "internalType": "address",
          "name": "account",
          "type": "address"
        },
        {
          "indexed": true,
          "internalType": "address",
          "name": "sender",
          "type": "address"
        }
      ],
      "name": "RoleGranted",
      "type": "event"
    },
    {
      "anonymous": false,
      "inputs": [
        {
          "indexed": true,
          "internalType": "bytes32",
          "name": "role",
          "type": "bytes32"
        },
        {
          "indexed": true,
          "internalType": "address",
          "name": "account",
          "type": "address"
        },
        {
          "indexed": true,
          "internalType": "address",
          "name": "sender",
          "type": "address"
        }
      ],
      "name": "RoleRevoked",
      "type": "event"
    },
    {
      "anonymous": false,
      "inputs": [
        {
          "indexed": true,
          "internalType": "uint256",
          "name": "chainId",
          "type": "uint256"
        },
        {
          "indexed": false,
          "internalType": "bytes",
          "name": "treasury",
          "type": "bytes"
        },
        {
          "indexed": false,
          "internalType": "bytes",
          "name": "tokenAddress",
          "type": "bytes"
        }
      ],
      "name": "TreasurySet",
      "type": "event"
    },
    {
      "anonymous": false,
      "inputs": [
        {
          "indexed": true,
          "internalType": "uint256",
          "name": "chainId",
          "type": "uint256"
        },
        {
          "indexed": false,
          "internalType": "uint256",
          "name": "amount",
          "type": "uint256"
        },
        {
          "indexed": false,
          "internalType": "uint256",
          "name": "destAmount",
          "type": "uint256"
        }
      ],
      "name": "TreasuryTransferred",
      "type": "event"
    },
    {
      "anonymous": false,
      "inputs": [
        {
          "indexed": true,
          "internalType": "address",
          "name": "user",
          "type": "address"
        },
        {
          "indexed": false,
          "internalType": "uint256",
          "name": "lpAmount",
          "type": "uint256"
        },
        {
          "indexed": false,
          "internalType": "uint256",
          "name": "tokenAmount",
          "type": "uint256"
        },
        {
          "indexed": false,
          "internalType": "uint256",
          "name": "feeAmount",
          "type": "uint256"
        }
      ],
      "name": "Withdrawn",
      "type": "event"
    },
    {
      "inputs": [],
      "name": "AGENT_ROLE",
      "outputs": [
        {
          "internalType": "bytes32",
          "name": "",
          "type": "bytes32"
        }
      ],
      "stateMutability": "view",
      "type": "function"
    },
    {
      "inputs": [],
      "name": "DEFAULT_ADMIN_ROLE",
      "outputs": [
        {
          "internalType": "bytes32",
          "name": "",
          "type": "bytes32"
        }
      ],
      "stateMutability": "view",
      "type": "function"
    },
    {
      "inputs": [],
      "name": "FEE_BASE",
      "outputs": [
        {
          "internalType": "uint256",
          "name": "",
          "type": "uint256"
        }
      ],
      "stateMutability": "view",
      "type": "function"
    },
    {
      "inputs": [],
      "name": "GOVERNMENT_ROLE",
      "outputs": [
        {
          "internalType": "bytes32",
          "name": "",
          "type": "bytes32"
        }
      ],
      "stateMutability": "view",
      "type": "function"
    },
    {
      "inputs": [],
      "name": "UPDATER_ROLE",
      "outputs": [
        {
          "internalType": "bytes32",
          "name": "",
          "type": "bytes32"
        }
      ],
      "stateMutability": "view",
      "type": "function"
    },
    {
      "inputs": [],
      "name": "assetForwarder",
      "outputs": [
        {
          "internalType": "address",
          "name": "",
          "type": "address"
        }
      ],
      "stateMutability": "view",
      "type": "function"
    },
    {
      "inputs": [
        {
          "internalType": "address",
          "name": "",
          "type": "address"
        }
      ],
      "name": "balance",
      "outputs": [
        {
          "internalType": "uint256",
          "name": "",
          "type": "uint256"
        }
      ],
      "stateMutability": "view",
      "type": "function"
    },
    {
      "inputs": [
        {
          "internalType": "address",
          "name": "",
          "type": "address"
        }
      ],
      "name": "balanceLocked",
      "outputs": [
        {
          "internalType": "uint256",
          "name": "",
          "type": "uint256"
        }
      ],
      "stateMutability": "view",
      "type": "function"
    },
    {
      "inputs": [],
      "name": "beneficiary",
      "outputs": [
        {
          "internalType": "address",
          "name": "",
          "type": "address"
        }
      ],
      "stateMutability": "view",
      "type": "function"
    },
    {
      "inputs": [
        {
          "internalType": "address",
          "name": "newGovernment",
          "type": "address"
        }
      ],
      "name": "changeGovernment",
      "outputs": [],
      "stateMutability": "nonpayable",
      "type": "function"
    },
    {
      "inputs": [
        {
          "internalType": "uint256",
          "name": "amount",
          "type": "uint256"
        }
      ],
      "name": "deposit",
      "outputs": [],
      "stateMutability": "nonpayable",
      "type": "function"
    },
    {
      "inputs": [
        {
          "internalType": "address",
          "name": "",
          "type": "address"
        }
      ],
      "name": "deposited",
      "outputs": [
        {
          "internalType": "uint256",
          "name": "",
          "type": "uint256"
        }
      ],
      "stateMutability": "view",
      "type": "function"
    },
    {
      "inputs": [],
      "name": "fee",
      "outputs": [
        {
          "internalType": "uint256",
          "name": "",
          "type": "uint256"
        }
      ],
      "stateMutability": "view",
      "type": "function"
    },
    {
      "inputs": [
        {
          "internalType": "bytes32",
          "name": "role",
          "type": "bytes32"
        }
      ],
      "name": "getRoleAdmin",
      "outputs": [
        {
          "internalType": "bytes32",
          "name": "",
          "type": "bytes32"
        }
      ],
      "stateMutability": "view",
      "type": "function"
    },
    {
      "inputs": [
        {
          "internalType": "bytes32",
          "name": "role",
          "type": "bytes32"
        },
        {
          "internalType": "address",
          "name": "account",
          "type": "address"
        }
      ],
      "name": "grantRole",
      "outputs": [],
      "stateMutability": "nonpayable",
      "type": "function"
    },
    {
      "inputs": [
        {
          "internalType": "bytes32",
          "name": "role",
          "type": "bytes32"
        },
        {
          "internalType": "address",
          "name": "account",
          "type": "address"
        }
      ],
      "name": "hasRole",
      "outputs": [
        {
          "internalType": "bool",
          "name": "",
          "type": "bool"
        }
      ],
      "stateMutability": "view",
      "type": "function"
    },
    {
      "inputs": [
        {
          "internalType": "address",
          "name": "_token",
          "type": "address"
        },
        {
          "internalType": "address",
          "name": "_agent",
          "type": "address"
        },
        {
          "internalType": "address",
          "name": "_government",
          "type": "address"
        },
        {
          "internalType": "address",
          "name": "_assetForwarder",
          "type": "address"
        }
      ],
      "name": "init",
      "outputs": [],
      "stateMutability": "nonpayable",
      "type": "function"
    },
    {
      "inputs": [],
      "name": "lastTimeUpdated",
      "outputs": [
        {
          "internalType": "uint256",
          "name": "",
          "type": "uint256"
        }
      ],
      "stateMutability": "view",
      "type": "function"
    },
    {
      "inputs": [],
      "name": "nonce",
      "outputs": [
        {
          "internalType": "uint256",
          "name": "",
          "type": "uint256"
        }
      ],
      "stateMutability": "view",
      "type": "function"
    },
    {
      "inputs": [],
      "name": "rate",
      "outputs": [
        {
          "internalType": "uint256",
          "name": "",
          "type": "uint256"
        }
      ],
      "stateMutability": "view",
      "type": "function"
    },
    {
      "inputs": [
        {
          "internalType": "bytes32",
          "name": "role",
          "type": "bytes32"
        },
        {
          "internalType": "address",
          "name": "callerConfirmation",
          "type": "address"
        }
      ],
      "name": "renounceRole",
      "outputs": [],
      "stateMutability": "nonpayable",
      "type": "function"
    },
    {
      "inputs": [
        {
          "internalType": "bytes32",
          "name": "role",
          "type": "bytes32"
        },
        {
          "internalType": "address",
          "name": "account",
          "type": "address"
        }
      ],
      "name": "revokeRole",
      "outputs": [],
      "stateMutability": "nonpayable",
      "type": "function"
    },
    {
      "inputs": [
        {
          "internalType": "uint256",
          "name": "newFee",
          "type": "uint256"
        }
      ],
      "name": "setFee",
      "outputs": [],
      "stateMutability": "nonpayable",
      "type": "function"
    },
    {
      "inputs": [
        {
          "internalType": "uint256",
          "name": "chainId",
          "type": "uint256"
        },
        {
          "internalType": "bytes",
          "name": "_treasury",
          "type": "bytes"
        },
        {
          "internalType": "bytes",
          "name": "_tokenAddress",
          "type": "bytes"
        }
      ],
      "name": "setTreasury",
      "outputs": [],
      "stateMutability": "nonpayable",
      "type": "function"
    },
    {
      "inputs": [
        {
          "internalType": "bytes4",
          "name": "interfaceId",
          "type": "bytes4"
        }
      ],
      "name": "supportsInterface",
      "outputs": [
        {
          "internalType": "bool",
          "name": "",
          "type": "bool"
        }
      ],
      "stateMutability": "view",
      "type": "function"
    },
    {
      "inputs": [],
      "name": "token",
      "outputs": [
        {
          "internalType": "address",
          "name": "",
          "type": "address"
        }
      ],
      "stateMutability": "view",
      "type": "function"
    },
    {
      "inputs": [
        {
          "internalType": "uint256",
          "name": "",
          "type": "uint256"
        }
      ],
      "name": "tokenAddress",
      "outputs": [
        {
          "internalType": "bytes",
          "name": "",
          "type": "bytes"
        }
      ],
      "stateMutability": "view",
      "type": "function"
    },
    {
      "inputs": [],
      "name": "totalSupply",
      "outputs": [
        {
          "internalType": "uint256",
          "name": "",
          "type": "uint256"
        }
      ],
      "stateMutability": "view",
      "type": "function"
    },
    {
      "inputs": [],
      "name": "totalSupplyLockedDeprecated",
      "outputs": [
        {
          "internalType": "uint256",
          "name": "",
          "type": "uint256"
        }
      ],
      "stateMutability": "view",
      "type": "function"
    },
    {
      "inputs": [
        {
          "internalType": "uint256",
          "name": "amount",
          "type": "uint256"
        },
        {
          "internalType": "uint256",
          "name": "destAmount",
          "type": "uint256"
        },
        {
          "internalType": "uint256",
          "name": "chainId",
          "type": "uint256"
        }
      ],
      "name": "transferToTreasury",
      "outputs": [],
      "stateMutability": "nonpayable",
      "type": "function"
    },
    {
      "inputs": [
        {
          "internalType": "uint256",
          "name": "",
          "type": "uint256"
        }
      ],
      "name": "treasury",
      "outputs": [
        {
          "internalType": "bytes",
          "name": "",
          "type": "bytes"
        }
      ],
      "stateMutability": "view",
      "type": "function"
    },
    {
      "inputs": [
        {
          "internalType": "uint256",
          "name": "newRate",
          "type": "uint256"
        }
      ],
      "name": "updateRate",
      "outputs": [],
      "stateMutability": "nonpayable",
      "type": "function"
    },
    {
      "inputs": [
        {
          "internalType": "uint256",
          "name": "amountLP",
          "type": "uint256"
        }
      ],
      "name": "withdraw",
      "outputs": [],
      "stateMutability": "nonpayable",
      "type": "function"
    }
  ],
  "transactionHash": "0x297f7584097d9e1f37a390e0d287cdabebddf782149699d68362e3d47f434b6c",
  "args": [],
  "numDeployments": 2,
  "solcInputHash": "d507b19c0c274d7004eefa897770ede2",
  "bytecode": "0x6080806040523461001657612040908161001c8239f35b600080fdfe608080604052600436101561001357600080fd5b600090813560e01c90816301ffc9a71461162c5750806306552ff3146113ce57806318160ddd146113b05780631d4aeeb4146110c557806322459e181461109c578063248a9ca3146110625780632c4e722e146110445780632e1a7d4d14610ecb5780632f2ff15d14610e8057806336568abe14610e3857806338af3eed14610e0f57806347e6338014610dd45780634c5430a014610da95780635d1a395014610d8b5780635fc3a31214610d525780636844a2e914610c9057806369ea177114610a6457806369fe0e2d146109bf5780637fe689171461099657806391d14854146109405780639cbed582146109175780639e6b26ba146108d4578063a217fddf146108b8578063affed0e01461089a578063b0fb7a221461087c578063b6b55f2514610785578063bc187a9d146102b1578063cb13cddb14610278578063d547741f14610229578063ddca3f431461020b578063e3d670d7146101d2578063ecefc705146101b55763fc0c546a1461018c57600080fd5b346101b257806003193601126101b257546040516001600160a01b039091168152602090f35b80fd5b50346101b257806003193601126101b25760206040516127108152f35b50346101b25760203660031901126101b2576020906040906001600160a01b036101fa611681565b168152600783522054604051908152f35b50346101b257806003193601126101b2576020600d54604051908152f35b50346101b25760403660031901126101b25761027460043561024961169c565b90808452600080516020611feb83398151915260205261026f6001604086200154611bf3565b611ebf565b5080f35b50346101b25760203660031901126101b2576020906040906001600160a01b036102a0611681565b168152600683522054604051908152f35b50346101b25760603660031901126101b257600080516020611fcb833981519152808252600080516020611feb8339815191526020526040822033835260205260ff6040832054161561076757506044358152600a8060205261032161031a604084205461174d565b15156118f0565b6044358252600b60205261033b61031a604084205461174d565b6103496024356004356118c0565b6064600435041061072c57815460095460405163095ea7b360e01b81526001600160a01b0391821660048083019190915235602482015291602091839160449183918891165af18015610721576106e1575b50604435908290827a184f03e93ff9f4daa797ed6e38ed64bf6a1f010000000000000000808210156106d0575b50600a906d04ee2d6d415b85acef8100000000808210156106c3575b50662386f26fc10000808210156106b6575b506305f5e100808210156106a9575b506127108082101561069c575b50606481101561068e575b1015610684575b60018083019381602161044f610439886116ea565b97610447604051998a6116b2565b8089526116ea565b602088019690601f1901368837870101905b61064e575b5050505060018060a01b038354169161049e602060405180936104918383019687925192839161182c565b81010380845201826116b2565b519051906020811061063c575b506040519160c0830183811067ffffffffffffffff8211176106285760405283835260043560208401526024356040840152606083015230608083015260a08201528160018060a01b03600954166044358252600b6020526040822090600a6020526040832093813b15610624576040805163f452ed4d60e01b8152825160048201526020830151602482015290820151604482015260608201516001600160a01b039081166064830152608083015116608482015260a09091015160a482015261010060c48201529384928391859183916105a29161059090610104850190611932565b8381036003190160e485015290611932565b03925af18015610619576105ed575b50604051600435815260243560208201527f14d590a745b008800724be1b521118020d24449b924ff7a8631d52ed842bae61604060443592a280f35b67ffffffffffffffff811161060557604052386105b1565b634e487b7160e01b82526041600452602482fd5b6040513d84823e3d90fd5b8380fd5b634e487b7160e01b85526041600452602485fd5b6000199060200360031b1b16386104ab565b600019019083906f181899199a1a9b1b9c1cb0b131b232b360811b8282061a83530491821561067f57919082610461565b610466565b9060010190610424565b60646002910493019261041d565b6004910493019238610412565b6008910493019238610405565b60109104930192386103f6565b60209104930192386103e4565b60409350604435049050600a6103c8565b6020813d602011610719575b816106fa602093836116b2565b81010312610715575180151503610711573861039b565b5080fd5b8280fd5b3d91506106ed565b6040513d85823e3d90fd5b60405162461bcd60e51b8152602060048201526013602482015272084e4d2c8ceca40cccaca40e8dede40d0d2ced606b1b6044820152606490fd5b6044906040519063e2517d3f60e01b82523360048301526024820152fd5b50346101b25760203660031901126101b2576004356107a5811515611874565b81546040516323b872dd60e01b602082015233602482015230604482015260648082018490528152906001600160a01b031660a0820167ffffffffffffffff811183821017610628576040526107fb9190611f42565b61080760025482611d5f565b33835260066020526040832061081e8382546118e3565b90553383526007602052604083206108378282546118e3565b9055610845816004546118e3565b60045560405191825260208201527f73a19dd210f1a7f902193214c0ee91dd35ee5b4d920cba8d519eca65a7b488ca60403392a280f35b50346101b257806003193601126101b2576020600354604051908152f35b50346101b257806003193601126101b2576020600154604051908152f35b50346101b257806003193601126101b257602090604051908152f35b50346101b25760203660031901126101b2576108ff6040610913926004358152600b60205220611787565b60405191829160208352602083019061184f565b0390f35b50346101b257806003193601126101b2576020604051600080516020611fab8339815191528152f35b50346101b25760403660031901126101b25760ff604060209261096161169c565b6004358252600080516020611feb83398151915285528282206001600160a01b03909116825284522054604051911615158152f35b50346101b257806003193601126101b2576009546040516001600160a01b039091168152602090f35b50346101b25760203660031901126101b2576004356109dc611ba9565b6103e88111610a1f5760407f528d9479e9f9889a87a3c30c7f7ba537e5e59c4c85a37733b16e57c62df6130291600d549080600d5582519182526020820152a180f35b60405162461bcd60e51b815260206004820152601960248201527f466565206d757374206265206c657373207468616e20313025000000000000006044820152606490fd5b50346101b257602080600319360112610711576004357f73e573f9566d61418a34d5de3ff49360f9c51fec37f7486551670290f6285dab808452600080516020611feb833981519152835260408420338552835260ff604085205416156107675750610384610ad5600354426118c0565b1115610c4b5760025491828211610beb578115610baf5760648304610afa81856118e3565b8311159081610b9b575b5015610b445791817fb38780ddde1f073d91c150de2696f3f7085883648ba21cc5ef01029cb21d191693604093600255426003558351928352820152a180f35b6084906040519062461bcd60e51b82526004820152602a60248201527f4e65772072617465206d7573742062652077697468696e203125206f6620746860448201526965206f6c64207261746560b01b6064820152fd5b610ba69150846118c0565b82101538610b04565b6064906040519062461bcd60e51b82526004820152601560248201527452617465206d75737420626520706f73697469766560581b6044820152fd5b6084906040519062461bcd60e51b82526004820152603360248201527f4e65772072617465206d757374206265206c657373207468616e206f7220657160448201527275616c20746f20746865206f6c64207261746560681b6064820152fd5b60405162461bcd60e51b815260048101839052601f60248201527f43616e206f6e6c7920757064617465206f6e6365203135206d696e75746573006044820152606490fd5b50346101b25760203660031901126101b257610caa611681565b610cb2611ba9565b6001600160a01b038116908115610cff57610ccc90611a78565b50610cd633611e17565b50337fd220bce19af917092091d2523c144f080a8bf6225a4da549d0c689f9f87cd09f8380a380f35b60405162461bcd60e51b815260206004820152602560248201527f4e657720676f7665726e6d656e742063616e6e6f74206265207a65726f206164604482015264647265737360d81b6064820152608490fd5b50346101b25760203660031901126101b2576020906040906001600160a01b03610d7a611681565b168152600883522054604051908152f35b50346101b257806003193601126101b2576020600554604051908152f35b50346101b25760203660031901126101b2576108ff6040610913926004358152600a60205220611787565b50346101b257806003193601126101b25760206040517f73e573f9566d61418a34d5de3ff49360f9c51fec37f7486551670290f6285dab8152f35b50346101b257806003193601126101b257600c546040516001600160a01b039091168152602090f35b50346101b25760403660031901126101b257610e5261169c565b336001600160a01b03821603610e6e5761027490600435611ebf565b60405163334bd91960e11b8152600490fd5b50346101b25760403660031901126101b257610274600435610ea061169c565b90808452600080516020611feb833981519152602052610ec66001604086200154611bf3565b611b22565b50346101b2576020806003193601126107115760043590610eed821515611874565b3383526007815281604084205410611000578160045410610fbc57610f1460025483611c26565b903384526007815260408420610f2b8482546118c0565b9055610f39836004546118c0565b600455610f84610f4b600d5484611ce3565b8093610f7f8260018060a01b03610f71818b5416610f6984876118c0565b903390611dd4565b8954600c5482169116611dd4565b6118c0565b9060405193845283015260408201527f75e161b3e824b114fc1a33274bd7091918dd4e639cede50b78b15a4eea956a2160603392a280f35b6064906040519062461bcd60e51b82526004820152601960248201527f496e73756666696369656e7420746f74616c20737570706c79000000000000006044820152fd5b6064906040519062461bcd60e51b82526004820152601760248201527f496e73756666696369656e74204c502062616c616e63650000000000000000006044820152fd5b50346101b257806003193601126101b2576020600254604051908152f35b50346101b25760203660031901126101b257600160406020926004358152600080516020611feb8339815191528452200154604051908152f35b50346101b257806003193601126101b2576020604051600080516020611fcb8339815191528152f35b50346101b25760603660031901126101b25760043567ffffffffffffffff602435818111610624576110fb903690600401611706565b906044358181116113ac57611114903690600401611706565b61111c611ba9565b838552602091600a835260408620908451918183116112eb5761113f815461174d565b92601f9384811161136c575b50808685821160011461130a578a916112ff575b508160011b916000199060031b1c19161790555b858752600b8452604087209183519182116112eb57611192835461174d565b8181116112ab575b50849082116001146112215792611210928261120396937fec33e2f1ec1e2920135556a4916d80334d158bd37c781780d5baa321e72da5e598968b91611216575b508160011b916000199060031b1c19161790555b60405194859460408652604086019061184f565b918483039085015261184f565b0390a280f35b9050830151386111db565b82885284882090601f198316895b8181106112945750837fec33e2f1ec1e2920135556a4916d80334d158bd37c781780d5baa321e72da5e5989693611210969361120399966001941061127b575b5050811b0190556111ef565b85015160001960f88460031b161c19169055388061126f565b91928760018192868a01518155019401920161122f565b8389528589208280850160051c8201928886106112e2575b0160051c01905b8181106112d7575061119a565b8981556001016112ca565b925081926112c3565b634e487b7160e01b88526041600452602488fd5b90508701513861115f565b838b52878b209150601f1983168b5b898b83831061135757505050908360019493921061133e575b5050811b019055611173565b89015160001960f88460031b161c191690553880611332565b84015185556001909401939283019201611319565b828a52868a208580840160051c8201928985106113a3575b0160051c01905b818110611398575061114b565b8a815560010161138b565b92508192611384565b8480fd5b50346101b257806003193601126101b2576020600454604051908152f35b50346101b25760803660031901126101b2576113e8611681565b6113f061169c565b6001600160a01b039160443583811691908281036116285760643590858216809203611624577ff0c57e16840df040f15088dc2f81fe391c3923bec73e23a9662efc9c229c6a009586549560ff8760401c16159667ffffffffffffffff81168015908161161c575b6001149081611612575b159081611609575b506115f75767ffffffffffffffff1981166001178955876115d8575b5060ff885460401c16156115c6576114c9936114c3926bffffffffffffffffffffffff60a01b9616868b5416178a558560095416176009556119c8565b50611a78565b50600080516020611fcb833981519152808652600080516020611feb8339815191526020526001604087200190815491600080516020611fab83398151915292838092557fbd79b86ffe0ab8e8776151514217cd7cacd52c909f66475c3af44e129f0b00ff92838a80a47f73e573f9566d61418a34d5de3ff49360f9c51fec37f7486551670290f6285dab808852600160408920019183835493558880a4600c541617600c556032600d55670de0b6b3a7640000600255611588575080f35b68ff00000000000000001981541690557fc7f505b2f371ae2175ee4913f4499e1f2633a7b5936321eed1cdaeb6115181d2602060405160018152a180f35b604051631afcd79f60e31b8152600490fd5b68ffffffffffffffffff19166801000000000000000117885538611486565b60405163f92ee8a960e01b8152600490fd5b9050153861146a565b303b159150611462565b899150611458565b8680fd5b8580fd5b9050346107115760203660031901126107115760043563ffffffff60e01b81168091036107155760209250637965db0b60e01b8114908115611670575b5015158152f35b6301ffc9a760e01b14905038611669565b600435906001600160a01b038216820361169757565b600080fd5b602435906001600160a01b038216820361169757565b90601f8019910116810190811067ffffffffffffffff8211176116d457604052565b634e487b7160e01b600052604160045260246000fd5b67ffffffffffffffff81116116d457601f01601f191660200190565b81601f820112156116975780359061171d826116ea565b9261172b60405194856116b2565b8284526020838301011161169757816000926020809301838601378301015290565b90600182811c9216801561177d575b602083101461176757565b634e487b7160e01b600052602260045260246000fd5b91607f169161175c565b6040519081600082546117998161174d565b9081845260209460019160018116908160001461180a57506001146117cb575b5050506117c8925003826116b2565b90565b600090815285812095935091905b8183106117f25750506117c893508201013880806117b9565b855487840185015294850194869450918301916117d9565b925050506117c894925060ff191682840152151560051b8201013880806117b9565b60005b83811061183f5750506000910152565b818101518382015260200161182f565b906020916118688151809281855285808601910161182c565b601f01601f1916010190565b1561187b57565b60405162461bcd60e51b815260206004820152601760248201527f416d6f756e74206d75737420626520706f7369746976650000000000000000006044820152606490fd5b919082039182116118cd57565b634e487b7160e01b600052601160045260246000fd5b919082018092116118cd57565b156118f757565b60405162461bcd60e51b815260206004820152601360248201527210da185a5b881b9bdd081cdd5c1c1bdc9d1959606a1b6044820152606490fd5b8054600093926119418261174d565b918282526020936001916001811690816000146119a95750600114611968575b5050505050565b90939495506000929192528360002092846000945b83861061199557505050500101903880808080611961565b80548587018301529401938590820161197d565b60ff19168685015250505090151560051b010191503880808080611961565b6001600160a01b031660008181527f81cf8a8d68c3bf977ff8d17e8ef6f30dbea1776614c7d2258c5ab1b17338333f6020526040812054909190600080516020611fcb83398151915290600080516020611feb8339815191529060ff16611a72578184526020526040832082845260205260408320600160ff198254161790557f2f8788117e7eff1d82e926ec794901d17c78024a50270940304540a733656f0d339380a4600190565b50505090565b6001600160a01b031660008181527f60244dca0d87c81b46c8e37a06cef7a8f3852c01dfdd6bfb803bd735e3f1663a6020526040812054909190600080516020611fab83398151915290600080516020611feb8339815191529060ff16611a72578184526020526040832082845260205260408320600160ff198254161790557f2f8788117e7eff1d82e926ec794901d17c78024a50270940304540a733656f0d339380a4600190565b90600091808352600080516020611feb83398151915280602052604084209260018060a01b03169283855260205260ff60408520541615600014611a72578184526020526040832082845260205260408320600160ff198254161790557f2f8788117e7eff1d82e926ec794901d17c78024a50270940304540a733656f0d339380a4600190565b3360009081527f60244dca0d87c81b46c8e37a06cef7a8f3852c01dfdd6bfb803bd735e3f1663a6020526040902054600080516020611fab8339815191529060ff16156107675750565b80600052600080516020611feb83398151915260205260406000203360005260205260ff60406000205416156107675750565b90670de0b6b3a7640000808302919060001981850993838086109503948086039514611cbf5784831115611ca6579082910981600003821680920460028082600302188083028203028083028203028083028203028083028203028083028203028092029003029360018380600003040190848311900302920304170290565b82634e487b71600052156003026011186020526024601cfd5b505080925015611ccd570490565b634e487b7160e01b600052601260045260246000fd5b908082029060001981840990828083109203918083039214611d54576127109082821115611d41577fbc01a36e2eb1c432ca57a786c226809d495182a9930be0ded288ce703afb7e91940990828211900360fc1b910360041c170290565b634e487b7160005260116020526024601cfd5b505061271091500490565b908082029060001981840990828083109203918083039214611dc357670de0b6b3a76400009082821115611d41577faccb18165bd6fe31ae1cf318dc5b51eee0e1ba569b88cd74c1773b91fac10669940990828211900360ee1b910360121c170290565b5050670de0b6b3a764000091500490565b60405163a9059cbb60e01b60208201526001600160a01b03929092166024830152604480830193909352918152611e1591611e106064836116b2565b611f42565b565b6001600160a01b031660008181527f60244dca0d87c81b46c8e37a06cef7a8f3852c01dfdd6bfb803bd735e3f1663a6020526040812054909190600080516020611fab83398151915290600080516020611feb8339815191529060ff1615611a7257818452602052604083208284526020526040832060ff1981541690557ff6391f5c32d9c69d2a47ea670b442974b53935d1edc7fd64eb21e047a839171b339380a4600190565b90600091808352600080516020611feb83398151915280602052604084209260018060a01b03169283855260205260ff604085205416600014611a7257818452602052604083208284526020526040832060ff1981541690557ff6391f5c32d9c69d2a47ea670b442974b53935d1edc7fd64eb21e047a839171b339380a4600190565b906000602091828151910182855af115611f9e576000513d611f9557506001600160a01b0381163b155b611f735750565b604051635274afe760e01b81526001600160a01b039091166004820152602490fd5b60011415611f6c565b6040513d6000823e3d90fdfed9d062b29c8756d894f301c5167d214c34d627724cd7fc859ab9329c9330cf51cab5a0bfe0b79d2c4b1c2e02599fa044d115b7511f9659307cb427695096770902dd7bc7dec4dceedda775e58dd541e08a116c6c53815c0bd028192f7b626800a26469706673582212200dfe8a0149114949e68354e1bfa0696a83051ed1dad65b2129fdd2e2b700269a64736f6c63430008180033",
  "devdoc": {
    "errors": {
      "AccessControlBadConfirmation()": [
        {
          "details": "The caller of a function is not the expected one. NOTE: Don't confuse with {AccessControlUnauthorizedAccount}."
        }
      ],
      "AccessControlUnauthorizedAccount(address,bytes32)": [
        {
          "details": "The `account` is missing a role."
        }
      ],
      "InvalidInitialization()": [
        {
          "details": "The contract is already initialized."
        }
      ],
      "NotInitializing()": [
        {
          "details": "The contract is not initializing."
        }
      ],
      "SafeERC20FailedOperation(address)": [
        {
          "details": "An operation with an ERC-20 token failed."
        }
      ]
    },
    "events": {
      "Initialized(uint64)": {
        "details": "Triggered when the contract has been initialized or reinitialized."
      },
      "RoleAdminChanged(bytes32,bytes32,bytes32)": {
        "details": "Emitted when `newAdminRole` is set as ``role``'s admin role, replacing `previousAdminRole` `DEFAULT_ADMIN_ROLE` is the starting admin for all roles, despite {RoleAdminChanged} not being emitted signaling this."
      },
      "RoleGranted(bytes32,address,address)": {
        "details": "Emitted when `account` is granted `role`. `sender` is the account that originated the contract call. This account bears the admin role (for the granted role). Expected in cases where the role was granted using the internal {AccessControl-_grantRole}."
      },
      "RoleRevoked(bytes32,address,address)": {
        "details": "Emitted when `account` is revoked `role`. `sender` is the account that originated the contract call:   - if using `revokeRole`, it is the admin role bearer   - if using `renounceRole`, it is the role bearer (i.e. `account`)"
      }
    },
    "kind": "dev",
    "methods": {
      "getRoleAdmin(bytes32)": {
        "details": "Returns the admin role that controls `role`. See {grantRole} and {revokeRole}. To change a role's admin, use {_setRoleAdmin}."
      },
      "grantRole(bytes32,address)": {
        "details": "Grants `role` to `account`. If `account` had not been already granted `role`, emits a {RoleGranted} event. Requirements: - the caller must have ``role``'s admin role. May emit a {RoleGranted} event."
      },
      "hasRole(bytes32,address)": {
        "details": "Returns `true` if `account` has been granted `role`."
      },
      "renounceRole(bytes32,address)": {
        "details": "Revokes `role` from the calling account. Roles are often managed via {grantRole} and {revokeRole}: this function's purpose is to provide a mechanism for accounts to lose their privileges if they are compromised (such as when a trusted device is misplaced). If the calling account had been revoked `role`, emits a {RoleRevoked} event. Requirements: - the caller must be `callerConfirmation`. May emit a {RoleRevoked} event."
      },
      "revokeRole(bytes32,address)": {
        "details": "Revokes `role` from `account`. If `account` had been granted `role`, emits a {RoleRevoked} event. Requirements: - the caller must have ``role``'s admin role. May emit a {RoleRevoked} event."
      },
      "supportsInterface(bytes4)": {
        "details": "See {IERC165-supportsInterface}."
      }
    },
    "version": 1
  },
  "userdoc": {
    "kind": "user",
    "methods": {},
    "version": 1
  },
  "storageLayout": {
    "storage": [
      {
        "astId": 6224,
        "contract": "contracts/Tulip.sol:Tulip",
        "label": "token",
        "offset": 0,
        "slot": "0",
        "type": "t_address"
      },
      {
        "astId": 6226,
        "contract": "contracts/Tulip.sol:Tulip",
        "label": "nonce",
        "offset": 0,
        "slot": "1",
        "type": "t_uint256"
      },
      {
        "astId": 6228,
        "contract": "contracts/Tulip.sol:Tulip",
        "label": "rate",
        "offset": 0,
        "slot": "2",
        "type": "t_uint256"
      },
      {
        "astId": 6230,
        "contract": "contracts/Tulip.sol:Tulip",
        "label": "lastTimeUpdated",
        "offset": 0,
        "slot": "3",
        "type": "t_uint256"
      },
      {
        "astId": 6232,
        "contract": "contracts/Tulip.sol:Tulip",
        "label": "totalSupply",
        "offset": 0,
        "slot": "4",
        "type": "t_uint256"
      },
      {
        "astId": 6234,
        "contract": "contracts/Tulip.sol:Tulip",
        "label": "totalSupplyLockedDeprecated",
        "offset": 0,
        "slot": "5",
        "type": "t_uint256"
      },
      {
        "astId": 6238,
        "contract": "contracts/Tulip.sol:Tulip",
        "label": "deposited",
        "offset": 0,
        "slot": "6",
        "type": "t_mapping(t_address,t_uint256)"
      },
      {
        "astId": 6242,
        "contract": "contracts/Tulip.sol:Tulip",
        "label": "balance",
        "offset": 0,
        "slot": "7",
        "type": "t_mapping(t_address,t_uint256)"
      },
      {
        "astId": 6246,
        "contract": "contracts/Tulip.sol:Tulip",
        "label": "balanceLocked",
        "offset": 0,
        "slot": "8",
        "type": "t_mapping(t_address,t_uint256)"
      },
      {
        "astId": 6248,
        "contract": "contracts/Tulip.sol:Tulip",
        "label": "assetForwarder",
        "offset": 0,
        "slot": "9",
        "type": "t_address"
      },
      {
        "astId": 6252,
        "contract": "contracts/Tulip.sol:Tulip",
        "label": "treasury",
        "offset": 0,
        "slot": "10",
        "type": "t_mapping(t_uint256,t_bytes_storage)"
      },
      {
        "astId": 6256,
        "contract": "contracts/Tulip.sol:Tulip",
        "label": "tokenAddress",
        "offset": 0,
        "slot": "11",
        "type": "t_mapping(t_uint256,t_bytes_storage)"
      },
      {
        "astId": 6258,
        "contract": "contracts/Tulip.sol:Tulip",
        "label": "beneficiary",
        "offset": 0,
        "slot": "12",
        "type": "t_address"
      },
      {
        "astId": 6260,
        "contract": "contracts/Tulip.sol:Tulip",
        "label": "fee",
        "offset": 0,
        "slot": "13",
        "type": "t_uint256"
      }
    ],
    "types": {
      "t_address": {
        "encoding": "inplace",
        "label": "address",
        "numberOfBytes": "20"
      },
      "t_bytes_storage": {
        "encoding": "bytes",
        "label": "bytes",
        "numberOfBytes": "32"
      },
      "t_mapping(t_address,t_uint256)": {
        "encoding": "mapping",
        "key": "t_address",
        "label": "mapping(address => uint256)",
        "numberOfBytes": "32",
        "value": "t_uint256"
      },
      "t_mapping(t_uint256,t_bytes_storage)": {
        "encoding": "mapping",
        "key": "t_uint256",
        "label": "mapping(uint256 => bytes)",
        "numberOfBytes": "32",
        "value": "t_bytes_storage"
      },
      "t_uint256": {
        "encoding": "inplace",
        "label": "uint256",
        "numberOfBytes": "32"
      }
    }
  }
}