{
  "address": "0xd99Eeb90cfE05FB7840399A46b854947E2FA71ed",
  "abi": [
    {
      "inputs": [],
      "name": "AccessControlBadConfirmation",
      "type": "error"
    },
    {
      "inputs": [
        {
          "internalType": "address",
          "name": "account",
          "type": "address"
        },
        {
          "internalType": "bytes32",
          "name": "neededRole",
          "type": "bytes32"
        }
      ],
      "name": "AccessControlUnauthorizedAccount",
      "type": "error"
    },
    {
      "inputs": [],
      "name": "InvalidInitialization",
      "type": "error"
    },
    {
      "inputs": [],
      "name": "NotInitializing",
      "type": "error"
    },
    {
      "inputs": [
        {
          "internalType": "address",
          "name": "token",
          "type": "address"
        }
      ],
      "name": "SafeERC20FailedOperation",
      "type": "error"
    },
    {
      "anonymous": false,
      "inputs": [
        {
          "indexed": false,
          "internalType": "uint64",
          "name": "version",
          "type": "uint64"
        }
      ],
      "name": "Initialized",
      "type": "event"
    },
    {
      "anonymous": false,
      "inputs": [
        {
          "indexed": true,
          "internalType": "bytes32",
          "name": "role",
          "type": "bytes32"
        },
        {
          "indexed": true,
          "internalType": "bytes32",
          "name": "previousAdminRole",
          "type": "bytes32"
        },
        {
          "indexed": true,
          "internalType": "bytes32",
          "name": "newAdminRole",
          "type": "bytes32"
        }
      ],
      "name": "RoleAdminChanged",
      "type": "event"
    },
    {
      "anonymous": false,
      "inputs": [
        {
          "indexed": true,
          "internalType": "bytes32",
          "name": "role",
          "type": "bytes32"
        },
        {
          "indexed": true,
          "internalType": "address",
          "name": "account",
          "type": "address"
        },
        {
          "indexed": true,
          "internalType": "address",
          "name": "sender",
          "type": "address"
        }
      ],
      "name": "RoleGranted",
      "type": "event"
    },
    {
      "anonymous": false,
      "inputs": [
        {
          "indexed": true,
          "internalType": "bytes32",
          "name": "role",
          "type": "bytes32"
        },
        {
          "indexed": true,
          "internalType": "address",
          "name": "account",
          "type": "address"
        },
        {
          "indexed": true,
          "internalType": "address",
          "name": "sender",
          "type": "address"
        }
      ],
      "name": "RoleRevoked",
      "type": "event"
    },
    {
      "inputs": [],
      "name": "AGENT_ROLE",
      "outputs": [
        {
          "internalType": "bytes32",
          "name": "",
          "type": "bytes32"
        }
      ],
      "stateMutability": "view",
      "type": "function"
    },
    {
      "inputs": [],
      "name": "DEFAULT_ADMIN_ROLE",
      "outputs": [
        {
          "internalType": "bytes32",
          "name": "",
          "type": "bytes32"
        }
      ],
      "stateMutability": "view",
      "type": "function"
    },
    {
      "inputs": [],
      "name": "GOVERNMENT_ROLE",
      "outputs": [
        {
          "internalType": "bytes32",
          "name": "",
          "type": "bytes32"
        }
      ],
      "stateMutability": "view",
      "type": "function"
    },
    {
      "inputs": [
        {
          "internalType": "address",
          "name": "",
          "type": "address"
        }
      ],
      "name": "_modules",
      "outputs": [
        {
          "internalType": "bool",
          "name": "",
          "type": "bool"
        }
      ],
      "stateMutability": "view",
      "type": "function"
    },
    {
      "inputs": [
        {
          "internalType": "address",
          "name": "module",
          "type": "address"
        },
        {
          "internalType": "uint256",
          "name": "amount",
          "type": "uint256"
        },
        {
          "internalType": "uint256",
          "name": "value",
          "type": "uint256"
        },
        {
          "internalType": "bytes",
          "name": "data",
          "type": "bytes"
        }
      ],
      "name": "approveAndCallModule",
      "outputs": [],
      "stateMutability": "nonpayable",
      "type": "function"
    },
    {
      "inputs": [],
      "name": "assetForwarder",
      "outputs": [
        {
          "internalType": "address",
          "name": "",
          "type": "address"
        }
      ],
      "stateMutability": "view",
      "type": "function"
    },
    {
      "inputs": [
        {
          "internalType": "address",
          "name": "module",
          "type": "address"
        },
        {
          "internalType": "uint256",
          "name": "value",
          "type": "uint256"
        },
        {
          "internalType": "bytes",
          "name": "data",
          "type": "bytes"
        }
      ],
      "name": "callModule",
      "outputs": [],
      "stateMutability": "nonpayable",
      "type": "function"
    },
    {
      "inputs": [
        {
          "internalType": "address",
          "name": "newGovernment",
          "type": "address"
        }
      ],
      "name": "changeGovernment",
      "outputs": [],
      "stateMutability": "nonpayable",
      "type": "function"
    },
    {
      "inputs": [
        {
          "internalType": "address",
          "name": "module",
          "type": "address"
        }
      ],
      "name": "disableModule",
      "outputs": [],
      "stateMutability": "nonpayable",
      "type": "function"
    },
    {
      "inputs": [
        {
          "internalType": "address",
          "name": "module",
          "type": "address"
        }
      ],
      "name": "enableModule",
      "outputs": [],
      "stateMutability": "nonpayable",
      "type": "function"
    },
    {
      "inputs": [
        {
          "internalType": "bytes32",
          "name": "role",
          "type": "bytes32"
        }
      ],
      "name": "getRoleAdmin",
      "outputs": [
        {
          "internalType": "bytes32",
          "name": "",
          "type": "bytes32"
        }
      ],
      "stateMutability": "view",
      "type": "function"
    },
    {
      "inputs": [
        {
          "internalType": "address[]",
          "name": "target",
          "type": "address[]"
        },
        {
          "internalType": "uint256[]",
          "name": "value",
          "type": "uint256[]"
        },
        {
          "internalType": "bytes[]",
          "name": "data",
          "type": "bytes[]"
        }
      ],
      "name": "gorvermentExec",
      "outputs": [],
      "stateMutability": "nonpayable",
      "type": "function"
    },
    {
      "inputs": [
        {
          "internalType": "bytes32",
          "name": "role",
          "type": "bytes32"
        },
        {
          "internalType": "address",
          "name": "account",
          "type": "address"
        }
      ],
      "name": "grantRole",
      "outputs": [],
      "stateMutability": "nonpayable",
      "type": "function"
    },
    {
      "inputs": [
        {
          "internalType": "bytes32",
          "name": "role",
          "type": "bytes32"
        },
        {
          "internalType": "address",
          "name": "account",
          "type": "address"
        }
      ],
      "name": "hasRole",
      "outputs": [
        {
          "internalType": "bool",
          "name": "",
          "type": "bool"
        }
      ],
      "stateMutability": "view",
      "type": "function"
    },
    {
      "inputs": [
        {
          "internalType": "address",
          "name": "_token",
          "type": "address"
        },
        {
          "internalType": "address",
          "name": "_agent",
          "type": "address"
        },
        {
          "internalType": "address",
          "name": "_government",
          "type": "address"
        },
        {
          "internalType": "address",
          "name": "_assetForwarder",
          "type": "address"
        },
        {
          "internalType": "bytes",
          "name": "_tulipAddress",
          "type": "bytes"
        }
      ],
      "name": "init",
      "outputs": [],
      "stateMutability": "nonpayable",
      "type": "function"
    },
    {
      "inputs": [
        {
          "internalType": "bytes32",
          "name": "role",
          "type": "bytes32"
        },
        {
          "internalType": "address",
          "name": "callerConfirmation",
          "type": "address"
        }
      ],
      "name": "renounceRole",
      "outputs": [],
      "stateMutability": "nonpayable",
      "type": "function"
    },
    {
      "inputs": [
        {
          "internalType": "bytes32",
          "name": "role",
          "type": "bytes32"
        },
        {
          "internalType": "address",
          "name": "account",
          "type": "address"
        }
      ],
      "name": "revokeRole",
      "outputs": [],
      "stateMutability": "nonpayable",
      "type": "function"
    },
    {
      "inputs": [
        {
          "internalType": "uint256",
          "name": "chainId",
          "type": "uint256"
        },
        {
          "internalType": "bytes",
          "name": "_treasury",
          "type": "bytes"
        },
        {
          "internalType": "bytes",
          "name": "_tokenAddress",
          "type": "bytes"
        }
      ],
      "name": "setTreasury",
      "outputs": [],
      "stateMutability": "nonpayable",
      "type": "function"
    },
    {
      "inputs": [
        {
          "internalType": "bytes4",
          "name": "interfaceId",
          "type": "bytes4"
        }
      ],
      "name": "supportsInterface",
      "outputs": [
        {
          "internalType": "bool",
          "name": "",
          "type": "bool"
        }
      ],
      "stateMutability": "view",
      "type": "function"
    },
    {
      "inputs": [],
      "name": "token",
      "outputs": [
        {
          "internalType": "address",
          "name": "",
          "type": "address"
        }
      ],
      "stateMutability": "view",
      "type": "function"
    },
    {
      "inputs": [
        {
          "internalType": "uint256",
          "name": "",
          "type": "uint256"
        }
      ],
      "name": "tokenAddress",
      "outputs": [
        {
          "internalType": "bytes",
          "name": "",
          "type": "bytes"
        }
      ],
      "stateMutability": "view",
      "type": "function"
    },
    {
      "inputs": [
        {
          "internalType": "uint256",
          "name": "amount",
          "type": "uint256"
        },
        {
          "internalType": "uint256",
          "name": "destAmount",
          "type": "uint256"
        },
        {
          "internalType": "uint256",
          "name": "chainId",
          "type": "uint256"
        }
      ],
      "name": "transferToTreasury",
      "outputs": [],
      "stateMutability": "nonpayable",
      "type": "function"
    },
    {
      "inputs": [
        {
          "internalType": "uint256",
          "name": "amount",
          "type": "uint256"
        },
        {
          "internalType": "uint256",
          "name": "destAmount",
          "type": "uint256"
        }
      ],
      "name": "transferToTulip",
      "outputs": [],
      "stateMutability": "nonpayable",
      "type": "function"
    },
    {
      "inputs": [
        {
          "internalType": "uint256",
          "name": "",
          "type": "uint256"
        }
      ],
      "name": "treasury",
      "outputs": [
        {
          "internalType": "bytes",
          "name": "",
          "type": "bytes"
        }
      ],
      "stateMutability": "view",
      "type": "function"
    },
    {
      "inputs": [],
      "name": "tulipAddress",
      "outputs": [
        {
          "internalType": "bytes",
          "name": "",
          "type": "bytes"
        }
      ],
      "stateMutability": "view",
      "type": "function"
    }
  ],
  "transactionHash": "0xba8ab4c2af711ca339fda1aa558da5addd83cd5ab632ce9c19e7cd620ff9444a",
  "args": [],
  "numDeployments": 2,
  "solcInputHash": "1875b1f7c54c0c8381d89fe91bd76362",
  "bytecode": "0x6080806040523461001657611e0f908161001c8239f35b600080fdfe6080604052600436101561001257600080fd5b60003560e01c806301ffc9a7146101a757806309e14fa3146101a25780631d4aeeb41461019d57806322459e1814610198578063248a9ca3146101935780632f2ff15d1461018e57806333598e0e1461018957806336568abe146101845780634c5430a01461017f5780635b58a2891461017a578063610b5925146101755780636844a2e9146101705780637a2a1a311461016b5780637da2aa23146101665780637fe689171461016157806391d148541461015c5780639cbed582146101575780639e6b26ba14610152578063a217fddf1461014d578063a95f524614610148578063bc187a9d14610143578063bf95df231461013e578063cd79901b14610139578063d547741f146101345763fc0c546a1461012f57600080fd5b61119a565b61114b565b610fd6565b610f94565b610d85565b610d3f565b610d23565b610cf7565b610cce565b610c6b565b610c42565b610bcb565b610b04565b610acd565b610a81565b61098d565b610921565b6107ab565b610636565b6105e5565b6105a9565b610580565b610410565b6102f1565b346101fd5760203660031901126101fd5760043563ffffffff60e01b81168091036101fd57602090637965db0b60e01b81149081156101ec575b506040519015158152f35b6301ffc9a760e01b149050386101e1565b600080fd5b6001600160a01b038116036101fd57565b634e487b7160e01b600052604160045260246000fd5b6001600160401b03811161023c57604052565b610213565b90601f801991011681019081106001600160401b0382111761023c57604052565b6040519060c082018281106001600160401b0382111761023c57604052565b6001600160401b03811161023c57601f01601f191660200190565b9291926102a882610281565b916102b66040519384610241565b8294818452818301116101fd578281602093846000960137010152565b9080601f830112156101fd578160206102ee9335910161029c565b90565b346101fd5760803660031901126101fd5760043561030e81610202565b6064356001600160401b0381116101fd5761032d9036906004016102d3565b6103356117a0565b6000805460405163a9059cbb60e01b60208083019182526001600160a01b0387811660248086019190915235604485015290931695939493929185919061038981606481015b03601f198101835282610241565b519082885af1156104055782513d6103fc5750833b155b6103e35790816103d76103d26103cb6103e09560018060a01b03166000526001602052604060002090565b5460ff1690565b6111c3565b6044359061187e565b80f35b604051635274afe760e01b815260048101859052602490fd5b600114156103a0565b6040513d84823e3d90fd5b346101fd5760603660031901126101fd576001600160401b036004356024358281116101fd576104449036906004016102d3565b906044358381116101fd5761045d9036906004016102d3565b9161046661180a565b600093828552602060046020526040862092805192831161023c576104958361048f86546107f6565b86611267565b602091601f84116001146104f25750826103e09695936104e295936104d0938a926104e7575b50508160011b916000199060031b1c19161790565b90556000526005602052604060002090565b6112bd565b0151905038806104bb565b9190601f19841661050886600052602060002090565b9389905b82821061055d5750509260019285926103e09998966104e2989610610544575b505050811b0190556000526005602052604060002090565b015160001960f88460031b161c1916905538808061052c565b8060018697829497870151815501960194019061050c565b60009103126101fd57565b346101fd5760003660031901126101fd576020604051600080516020611d7a8339815191528152f35b346101fd5760203660031901126101fd57600435600052600080516020611d9a8339815191526020526020600160406000200154604051908152f35b346101fd5760403660031901126101fd5761063460243560043561060882610202565b80600052600080516020611d9a83398151915260205261062f600160406000200154611850565b6119c9565b005b346101fd5760a03660031901126101fd5760043561065381610202565b6024359061066082610202565b6044359161066d83610202565b60643561067981610202565b6001600160401b03936084358581116101fd5761069a9036906004016102d3565b92600080516020611dba833981519152549560ff8760401c16159616801590816107a3575b6001149081610799575b159081610790575b5061077e57600080516020611dba833981519152805467ffffffffffffffff19166001179055610705948661075457611386565b61070b57005b600080516020611dba833981519152805460ff60401b19169055604051600181527fc7f505b2f371ae2175ee4913f4499e1f2633a7b5936321eed1cdaeb6115181d290602090a1005b600080516020611dba833981519152805460ff60401b191668010000000000000000179055611386565b60405163f92ee8a960e01b8152600490fd5b905015386106d1565b303b1591506106c9565b8791506106bf565b346101fd5760403660031901126101fd576024356107c881610202565b336001600160a01b038216036107e45761063490600435611b2c565b60405163334bd91960e11b8152600490fd5b90600182811c92168015610826575b602083101461081057565b634e487b7160e01b600052602260045260246000fd5b91607f1691610805565b604051908160008254610842816107f6565b908184526020946001916001811690816000146108b05750600114610871575b5050506102ee92500382610241565b600090815285812095935091905b8183106108985750506102ee9350820101388080610862565b8554878401850152948501948694509183019161087f565b925050506102ee94925060ff191682840152151560051b820101388080610862565b60005b8381106108e55750506000910152565b81810151838201526020016108d5565b6040916020825261091581518092816020860152602086860191016108d2565b601f01601f1916010190565b346101fd5760203660031901126101fd57600435600052600460205261095961094d6040600020610830565b604051918291826108f5565b0390f35b9181601f840112156101fd578235916001600160401b0383116101fd576020808501948460051b0101116101fd57565b346101fd5760603660031901126101fd576001600160401b036004358181116101fd576109be90369060040161095d565b6024358381116101fd576109d690369060040161095d565b926044358581116101fd576109ef90369060040161095d565b9390916109fa61180a565b60005b828110610a0657005b610a118184846114f2565b3590610a1c82610202565b610a278189886114f2565b3587821015610a7c578160051b860135601e19873603018112156101fd578601928335938b85116101fd576020019184360383136101fd57610a70610a7693600196369161029c565b9161187e565b016109fd565b6114dc565b346101fd5760203660031901126101fd57600435610a9e81610202565b610aa661180a565b6001600160a01b03166000908152600160208190526040909120805460ff19169091179055005b346101fd5760203660031901126101fd57610634600435610aed81610202565b610af561180a565b610afe33611a6d565b506118a2565b346101fd57600080600319360112610bc857604051908060035490610b28826107f6565b80855291602091600191828116908115610b9b5750600114610b55575b6109598661094d81880382610241565b935060038452600080516020611d3a8339815191525b838510610b885750505050810160200161094d8261095938610b45565b8054868601840152938201938101610b6b565b90508695506109599693506020925061094d94915060ff191682840152151560051b820101929338610b45565b80fd5b346101fd5760603660031901126101fd57600435610be881610202565b604435906001600160401b0382116101fd57610c0b6106349236906004016102d3565b90610c146117a0565b6001600160a01b038116600090815260016020526040902054610c399060ff166111c3565b6024359061187e565b346101fd5760003660031901126101fd576002546040516001600160a01b039091168152602090f35b346101fd5760403660031901126101fd57602060ff610cc2602435610c8f81610202565b600435600052600080516020611d9a833981519152845260406000209060018060a01b0316600052602052604060002090565b54166040519015158152f35b346101fd5760003660031901126101fd576020604051600080516020611d5a8339815191528152f35b346101fd5760203660031901126101fd57600435600052600560205261095961094d6040600020610830565b346101fd5760003660031901126101fd57602060405160008152f35b346101fd5760203660031901126101fd57600435610d5c81610202565b610d6461180a565b6001600160a01b03166000908152600160205260409020805460ff19169055005b346101fd5760603660031901126101fd57604435600435610da46117a0565b610dca610dc3610dbe846000526004602052604060002090565b611502565b151561150c565b610de4610dc3610dbe846000526005602052604060002090565b610e49600092602083610e0f610e03610e03885460018060a01b031690565b6001600160a01b031690565b60025460405163095ea7b360e01b81526001600160a01b039091166004820152602481019290925290938491908290889082906044820190565b03925af1918215610f5c578492610f65575b50610e6581611bf6565b8254610ec390610e979061037b90610e92906001600160a01b03165b946040519283916020830190611572565b611589565b91610ea0610262565b858152602081019690965260243560408701526001600160a01b03166060860152565b30608085015260a0840152600254610ee590610e03906001600160a01b031681565b610f0d610efc836000526005602052604060002090565b926000526004602052604060002090565b91813b15610f615783610f37956040519687958694859363f452ed4d60e01b855260048501611737565b03925af18015610f5c57610f49575080f35b80610f566103e092610229565b80610575565b611566565b8380fd5b610f869060203d602011610f8d575b610f7e8183610241565b81019061154e565b5038610e5b565b503d610f74565b346101fd5760203660031901126101fd57600435610fb181610202565b60018060a01b03166000526001602052602060ff604060002054166040519015158152f35b346101fd5760403660031901126101fd57600435610ff26117a0565b60009061104b602082611011610e03610e03875460018060a01b031690565b60025460405163095ea7b360e01b81526001600160a01b039091166004820152602481019290925290928391908290879082906044820190565b03925af18015610f5c5761112c575b50611063611b98565b82546110af906110839061037b90610e92906001600160a01b0316610e81565b9161108c610262565b858152602081019490945260243560408501526001600160a01b03166060840152565b30608083015260a082015260025482906110d390610e03906001600160a01b031681565b615afe60005260056020527f1dee9ea4161ebfb0ac9f3a66238575782cd6d7e9c43af7783b76c707a4c6ff4e90803b1561112857610f37938360405180968195829463f452ed4d60e01b845260048401611642565b8280fd5b6111449060203d602011610f8d57610f7e8183610241565b503861105a565b346101fd5760403660031901126101fd5761063460243560043561116e82610202565b80600052600080516020611d9a833981519152602052611195600160406000200154611850565b611b2c565b346101fd5760003660031901126101fd576000546040516001600160a01b039091168152602090f35b156111ca57565b60405162461bcd60e51b8152602060048201526015602482015274135bd91d5b19481b9bdd081c9959da5cdd195c9959605a1b6044820152606490fd5b601f8111611213575050565b6000906003600052600080516020611d3a833981519152906020601f850160051c8301941061125d575b601f0160051c01915b82811061125257505050565b818155600101611246565b909250829061123d565b90601f811161127557505050565b6000916000526020600020906020601f850160051c830194106112b3575b601f0160051c01915b8281106112a857505050565b81815560010161129c565b9092508290611293565b91909182516001600160401b03811161023c576112e4816112de84546107f6565b84611267565b602080601f831160011461131b575081906113179394956000926104e75750508160011b916000199060031b1c19161790565b9055565b90601f1983169561133185600052602060002090565b926000905b88821061136e57505083600195969710611355575b505050811b019055565b015160001960f88460031b161c1916905538808061134b565b80600185968294968601518155019501930190611336565b90919294939460ff600080516020611dba8339815191525460401c16156114ca5760018060a01b0390816bffffffffffffffffffffffff60a01b93168360005416176000551690600254161760025583516001600160401b03811161023c576113f9816113f46003546107f6565b611207565b602080601f8311600114611446575081610afe93926114339261143b97986000926104e75750508160011b916000199060031b1c19161790565b60035561196a565b50611444611a03565b565b90601f198316966114676003600052600080516020611d3a83398151915290565b926000905b8982106114b2575050918391600193610afe969561143b999a10611499575b505050811b0160035561196a565b015160001960f88460031b161c1916905538808061148b565b8060018596829496860151815501950193019061146c565b604051631afcd79f60e31b8152600490fd5b634e487b7160e01b600052603260045260246000fd5b9190811015610a7c5760051b0190565b6102ee90546107f6565b1561151357565b60405162461bcd60e51b815260206004820152601360248201527210da185a5b881b9bdd081cdd5c1c1bdc9d1959606a1b6044820152606490fd5b908160209103126101fd575180151581036101fd5790565b6040513d6000823e3d90fd5b90611585602092828151948592016108d2565b0190565b60208151910151906020811061159d575090565b6000199060200360031b1b1690565b8054600093926115bb826107f6565b9182825260209360019160018116908160001461162357506001146115e2575b5050505050565b90939495506000929192528360002092846000945b83861061160f575050505001019038808080806115db565b8054858701830152940193859082016115f7565b60ff19168685015250505090151560051b0101915038808080806115db565b91611698906101008351855260a06020948581015186880152604081015160408801526060810151600180841b0380911660608901526080820151166080880152015160a08601528060c08601528401906115ac565b9160e0818403910152600091600354906116b1826107f6565b8082529160019081811690811561171a57506001146116d2575b5050505090565b929350906003600052600080516020611d3a83398151915292846000945b83861061170657505050500101388080806116cb565b8054858701830152940193859082016116f0565b60ff191685840152505090151560051b01019050388080806116cb565b91611792906102ee949260a0610100918051875260208101516020880152604081015160408801526060810151600180841b0380911660608901526080820151166080880152015160a08601528060c08601528401906115ac565b9160e08184039101526115ac565b3360009081527f81cf8a8d68c3bf977ff8d17e8ef6f30dbea1776614c7d2258c5ab1b17338333f60205260409020600080516020611d7a8339815191529060ff905b5416156117ec5750565b6044906040519063e2517d3f60e01b82523360048301526024820152fd5b3360009081527f60244dca0d87c81b46c8e37a06cef7a8f3852c01dfdd6bfb803bd735e3f1663a60205260409020600080516020611d5a8339815191529060ff906117e2565b6000818152600080516020611d9a83398151915260209081526040808320338452909152902060ff906117e2565b916000928392602083519301915af1604051903d6000833e1561189e5750565b3d90fd5b6001600160a01b03811660009081527f60244dca0d87c81b46c8e37a06cef7a8f3852c01dfdd6bfb803bd735e3f1663a60205260408120600080516020611d5a83398151915290600080516020611d9a8339815191529060ff905b541661196357818352602090815260408084206001600160a01b038616600090815292529020805460ff1916600117905533926001600160a01b0316917f2f8788117e7eff1d82e926ec794901d17c78024a50270940304540a733656f0d9080a4600190565b5050905090565b6001600160a01b03811660009081527f81cf8a8d68c3bf977ff8d17e8ef6f30dbea1776614c7d2258c5ab1b17338333f60205260408120600080516020611d7a83398151915290600080516020611d9a8339815191529060ff906118fd565b6000818152600080516020611d9a833981519152602081815260408084206001600160a01b0387168552909152822091929160ff906118fd565b600080516020611d7a83398151915280600052600080516020611d9a833981519152602052600160406000200190815490600080516020611d5a8339815191528093557fbd79b86ffe0ab8e8776151514217cd7cacd52c909f66475c3af44e129f0b00ff600080a4565b6001600160a01b03811660009081527f60244dca0d87c81b46c8e37a06cef7a8f3852c01dfdd6bfb803bd735e3f1663a60205260408120600080516020611d5a83398151915290600080516020611d9a8339815191529060ff905b54161561196357818352602090815260408084206001600160a01b038616600090815292529020805460ff1916905533926001600160a01b0316917ff6391f5c32d9c69d2a47ea670b442974b53935d1edc7fd64eb21e047a839171b9080a4600190565b6000818152600080516020611d9a833981519152602081815260408084206001600160a01b0387168552909152822091929160ff90611ac8565b90611b7082610281565b611b7d6040519182610241565b8281528092611b8e601f1991610281565b0190602036910137565b615afe60405190604082018281106001600160401b0382111761023c576040526005825260203681840137602582015b6000190190600a906f181899199a1a9b1b9c1cb0b131b232b360811b8282061a8353049081611bc857505090565b806000917a184f03e93ff9f4daa797ed6e38ed64bf6a1f01000000000000000080821015611d2b575b506d04ee2d6d415b85acef810000000080831015611d1c575b50662386f26fc1000080831015611d0d575b506305f5e10080831015611cfe575b5061271080831015611cef575b506064821015611cdf575b600a80921015611cd5575b600190816021611c8e60018701611b66565b95860101905b611c9f575050505090565b600019019083906f181899199a1a9b1b9c1cb0b131b232b360811b8282061a835304918215611cd057919082611c94565b6116cb565b9160010191611c7c565b9190606460029104910191611c71565b60049193920491019138611c66565b60089193920491019138611c59565b60109193920491019138611c4a565b60209193920491019138611c38565b604093508104915038611c1f56fec2575a0e9e593c00f959f8c92f12db2869c3395a3b0502d05e2516446f71f85bd9d062b29c8756d894f301c5167d214c34d627724cd7fc859ab9329c9330cf51cab5a0bfe0b79d2c4b1c2e02599fa044d115b7511f9659307cb427695096770902dd7bc7dec4dceedda775e58dd541e08a116c6c53815c0bd028192f7b626800f0c57e16840df040f15088dc2f81fe391c3923bec73e23a9662efc9c229c6a00a2646970667358221220e549eb857a51309e2fdd96a0535a83008f249d8a3515d8017f601406f438023864736f6c63430008180033",
  "devdoc": {
    "errors": {
      "AccessControlBadConfirmation()": [
        {
          "details": "The caller of a function is not the expected one. NOTE: Don't confuse with {AccessControlUnauthorizedAccount}."
        }
      ],
      "AccessControlUnauthorizedAccount(address,bytes32)": [
        {
          "details": "The `account` is missing a role."
        }
      ],
      "InvalidInitialization()": [
        {
          "details": "The contract is already initialized."
        }
      ],
      "NotInitializing()": [
        {
          "details": "The contract is not initializing."
        }
      ],
      "SafeERC20FailedOperation(address)": [
        {
          "details": "An operation with an ERC-20 token failed."
        }
      ]
    },
    "events": {
      "Initialized(uint64)": {
        "details": "Triggered when the contract has been initialized or reinitialized."
      },
      "RoleAdminChanged(bytes32,bytes32,bytes32)": {
        "details": "Emitted when `newAdminRole` is set as ``role``'s admin role, replacing `previousAdminRole` `DEFAULT_ADMIN_ROLE` is the starting admin for all roles, despite {RoleAdminChanged} not being emitted signaling this."
      },
      "RoleGranted(bytes32,address,address)": {
        "details": "Emitted when `account` is granted `role`. `sender` is the account that originated the contract call. This account bears the admin role (for the granted role). Expected in cases where the role was granted using the internal {AccessControl-_grantRole}."
      },
      "RoleRevoked(bytes32,address,address)": {
        "details": "Emitted when `account` is revoked `role`. `sender` is the account that originated the contract call:   - if using `revokeRole`, it is the admin role bearer   - if using `renounceRole`, it is the role bearer (i.e. `account`)"
      }
    },
    "kind": "dev",
    "methods": {
      "getRoleAdmin(bytes32)": {
        "details": "Returns the admin role that controls `role`. See {grantRole} and {revokeRole}. To change a role's admin, use {_setRoleAdmin}."
      },
      "grantRole(bytes32,address)": {
        "details": "Grants `role` to `account`. If `account` had not been already granted `role`, emits a {RoleGranted} event. Requirements: - the caller must have ``role``'s admin role. May emit a {RoleGranted} event."
      },
      "hasRole(bytes32,address)": {
        "details": "Returns `true` if `account` has been granted `role`."
      },
      "renounceRole(bytes32,address)": {
        "details": "Revokes `role` from the calling account. Roles are often managed via {grantRole} and {revokeRole}: this function's purpose is to provide a mechanism for accounts to lose their privileges if they are compromised (such as when a trusted device is misplaced). If the calling account had been revoked `role`, emits a {RoleRevoked} event. Requirements: - the caller must be `callerConfirmation`. May emit a {RoleRevoked} event."
      },
      "revokeRole(bytes32,address)": {
        "details": "Revokes `role` from `account`. If `account` had been granted `role`, emits a {RoleRevoked} event. Requirements: - the caller must have ``role``'s admin role. May emit a {RoleRevoked} event."
      },
      "supportsInterface(bytes4)": {
        "details": "See {IERC165-supportsInterface}."
      }
    },
    "version": 1
  },
  "userdoc": {
    "kind": "user",
    "methods": {},
    "version": 1
  },
  "storageLayout": {
    "storage": [
      {
        "astId": 6166,
        "contract": "contracts/EVMTreasury.sol:EVMTreasury",
        "label": "token",
        "offset": 0,
        "slot": "0",
        "type": "t_address"
      },
      {
        "astId": 6170,
        "contract": "contracts/EVMTreasury.sol:EVMTreasury",
        "label": "_modules",
        "offset": 0,
        "slot": "1",
        "type": "t_mapping(t_address,t_bool)"
      },
      {
        "astId": 6172,
        "contract": "contracts/EVMTreasury.sol:EVMTreasury",
        "label": "assetForwarder",
        "offset": 0,
        "slot": "2",
        "type": "t_address"
      },
      {
        "astId": 6174,
        "contract": "contracts/EVMTreasury.sol:EVMTreasury",
        "label": "tulipAddress",
        "offset": 0,
        "slot": "3",
        "type": "t_bytes_storage"
      },
      {
        "astId": 6178,
        "contract": "contracts/EVMTreasury.sol:EVMTreasury",
        "label": "treasury",
        "offset": 0,
        "slot": "4",
        "type": "t_mapping(t_uint256,t_bytes_storage)"
      },
      {
        "astId": 6182,
        "contract": "contracts/EVMTreasury.sol:EVMTreasury",
        "label": "tokenAddress",
        "offset": 0,
        "slot": "5",
        "type": "t_mapping(t_uint256,t_bytes_storage)"
      }
    ],
    "types": {
      "t_address": {
        "encoding": "inplace",
        "label": "address",
        "numberOfBytes": "20"
      },
      "t_bool": {
        "encoding": "inplace",
        "label": "bool",
        "numberOfBytes": "1"
      },
      "t_bytes_storage": {
        "encoding": "bytes",
        "label": "bytes",
        "numberOfBytes": "32"
      },
      "t_mapping(t_address,t_bool)": {
        "encoding": "mapping",
        "key": "t_address",
        "label": "mapping(address => bool)",
        "numberOfBytes": "32",
        "value": "t_bool"
      },
      "t_mapping(t_uint256,t_bytes_storage)": {
        "encoding": "mapping",
        "key": "t_uint256",
        "label": "mapping(uint256 => bytes)",
        "numberOfBytes": "32",
        "value": "t_bytes_storage"
      },
      "t_uint256": {
        "encoding": "inplace",
        "label": "uint256",
        "numberOfBytes": "32"
      }
    }
  }
}