{
  "address": "0xBDc732d775cD15448021fbcc90fc59516206875A",
  "abi": [
    {
      "inputs": [],
      "name": "InvalidInitialization",
      "type": "error"
    },
    {
      "inputs": [],
      "name": "NotInitializing",
      "type": "error"
    },
    {
      "inputs": [
        {
          "internalType": "address",
          "name": "token",
          "type": "address"
        }
      ],
      "name": "SafeERC20FailedOperation",
      "type": "error"
    },
    {
      "anonymous": false,
      "inputs": [
        {
          "indexed": false,
          "internalType": "uint64",
          "name": "version",
          "type": "uint64"
        }
      ],
      "name": "Initialized",
      "type": "event"
    },
    {
      "inputs": [
        {
          "internalType": "address",
          "name": "_comet",
          "type": "address"
        }
      ],
      "name": "changeComet",
      "outputs": [],
      "stateMutability": "nonpayable",
      "type": "function"
    },
    {
      "inputs": [
        {
          "internalType": "address",
          "name": "_government",
          "type": "address"
        }
      ],
      "name": "changeGovernment",
      "outputs": [],
      "stateMutability": "nonpayable",
      "type": "function"
    },
    {
      "inputs": [],
      "name": "comet",
      "outputs": [
        {
          "internalType": "address",
          "name": "",
          "type": "address"
        }
      ],
      "stateMutability": "view",
      "type": "function"
    },
    {
      "inputs": [
        {
          "internalType": "bytes",
          "name": "",
          "type": "bytes"
        }
      ],
      "name": "deposit",
      "outputs": [],
      "stateMutability": "nonpayable",
      "type": "function"
    },
    {
      "inputs": [],
      "name": "getTotalValue",
      "outputs": [
        {
          "internalType": "uint256",
          "name": "",
          "type": "uint256"
        }
      ],
      "stateMutability": "view",
      "type": "function"
    },
    {
      "inputs": [
        {
          "internalType": "address[]",
          "name": "target",
          "type": "address[]"
        },
        {
          "internalType": "uint256[]",
          "name": "value",
          "type": "uint256[]"
        },
        {
          "internalType": "bytes[]",
          "name": "data",
          "type": "bytes[]"
        }
      ],
      "name": "gorvermentExec",
      "outputs": [],
      "stateMutability": "nonpayable",
      "type": "function"
    },
    {
      "inputs": [],
      "name": "government",
      "outputs": [
        {
          "internalType": "address",
          "name": "",
          "type": "address"
        }
      ],
      "stateMutability": "view",
      "type": "function"
    },
    {
      "inputs": [
        {
          "internalType": "address",
          "name": "_treasury",
          "type": "address"
        },
        {
          "internalType": "address",
          "name": "_government",
          "type": "address"
        },
        {
          "internalType": "address",
          "name": "_usdc",
          "type": "address"
        },
        {
          "internalType": "address",
          "name": "_comet",
          "type": "address"
        }
      ],
      "name": "init",
      "outputs": [],
      "stateMutability": "nonpayable",
      "type": "function"
    },
    {
      "inputs": [],
      "name": "treasury",
      "outputs": [
        {
          "internalType": "address",
          "name": "",
          "type": "address"
        }
      ],
      "stateMutability": "view",
      "type": "function"
    },
    {
      "inputs": [],
      "name": "usdc",
      "outputs": [
        {
          "internalType": "address",
          "name": "",
          "type": "address"
        }
      ],
      "stateMutability": "view",
      "type": "function"
    },
    {
      "inputs": [
        {
          "internalType": "bytes",
          "name": "",
          "type": "bytes"
        }
      ],
      "name": "withdraw",
      "outputs": [],
      "stateMutability": "nonpayable",
      "type": "function"
    }
  ],
  "transactionHash": "0x0f7d5febebba7bd740a51a011c86ad405ebd2e8ae45260a82ed13b176e9aa32e",
  "args": [],
  "numDeployments": 3,
  "solcInputHash": "b8af876ef35022b1e4e01fc7154897fd",
  "bytecode": "0x6080806040523461001657610cc3908161001c8239f35b600080fdfe6080604052600436101561001257600080fd5b60003560e01c806306552ff3146100c75780630968f264146100c25780632672f526146100bd5780633e413bee146100b85780635b58a289146100b357806361d027b3146100ae5780636844a2e9146100a957806398b1e06a146100a4578063ba3e9c121461009f578063c58f7c311461009a5763caa648b41461009557600080fd5b610945565b6108f5565b6108cc565b610739565b6106ee565b6106c5565b6105c1565b610567565b61053e565b610393565b6100e2565b6001600160a01b038116036100dd57565b600080fd5b346100dd5760803660031901126100dd576004356100ff816100cc565b6024359061010c826100cc565b604435610118816100cc565b60643590610125826100cc565b600080516020610c6e833981519152549367ffffffffffffffff60ff8660401c16159516801590816102b4575b60011490816102aa575b1590816102a1575b5061028f57600080516020610c6e833981519152805467ffffffffffffffff191660011790556101d7938561022657929060018060a01b0392838092816001600160601b0360a01b9716876000541617600055168560015416176001551683600254161760025516906003541617600355565b6101dd57005b600080516020610c6e833981519152805460ff60401b19169055604051600181527fc7f505b2f371ae2175ee4913f4499e1f2633a7b5936321eed1cdaeb6115181d290602090a1005b600080516020610c6e833981519152805460ff60401b191668010000000000000000179055929060018060a01b0392838092816001600160601b0360a01b9716876000541617600055168560015416176001551683600254161760025516906003541617600355565b60405163f92ee8a960e01b8152600490fd5b90501538610164565b303b15915061015c565b869150610152565b634e487b7160e01b600052604160045260246000fd5b67ffffffffffffffff81116102e657604052565b6102bc565b90601f8019910116810190811067ffffffffffffffff8211176102e657604052565b92919267ffffffffffffffff82116102e65760405191610337601f8201601f1916602001846102eb565b8294818452818301116100dd578281602093846000960137010152565b60206003198201126100dd576004359067ffffffffffffffff82116100dd57806023830112156100dd578160246103909360040135910161030d565b90565b346100dd576103a136610354565b50600080546001600160a01b03906103bc9082163314610a3d565b6003546103df906103d3906001600160a01b031681565b6001600160a01b031690565b6040516370a0823160e01b8082523060048301526020939290918481602481855afa80156104f45786918291610516575b5061041c811515610a91565b6002546001600160a01b031692803b156105125760405163f3fef3a360e01b81526001600160a01b0394909416600485015260248401919091528290604490829084905af180156104f4576104f9575b506002548390610484906001600160a01b03166103d3565b60405192835230600484015291928390602490829085165afa9182156104f4576104c29385936104c5575b505083546001600160a01b031690610bb6565b80f35b6104e5929350803d106104ed575b6104dd81836102eb565b810190610a76565b9038806104af565b503d6104d3565b610a85565b8061050661050c926102d2565b80610533565b3861046c565b8280fd5b61052d9150863d88116104ed576104dd81836102eb565b38610410565b60009103126100dd57565b346100dd5760003660031901126100dd576001546040516001600160a01b039091168152602090f35b346100dd5760003660031901126100dd576002546040516001600160a01b039091168152602090f35b9181601f840112156100dd5782359167ffffffffffffffff83116100dd576020808501948460051b0101116100dd57565b346100dd5760603660031901126100dd5767ffffffffffffffff6004358181116100dd576105f3903690600401610590565b90916024358181116100dd5761060d903690600401610590565b926044358381116100dd57610626903690600401610590565b9160019661063f60018060a01b03600154163314610ad6565b60005b82811061064b57005b610656818484610b2a565b3590610661826100cc565b61066c818a89610b2a565b35868210156106c0578160051b860135601e19873603018112156100dd578601928335938a85116100dd576020019184360383136100dd576106b46106ba938e96369161030d565b91610c49565b01610642565b610b14565b346100dd5760003660031901126100dd576000546040516001600160a01b039091168152602090f35b346100dd5760203660031901126100dd5760043561070b816100cc565b600154906001600160a01b03906107253383851614610ad6565b6001600160a01b0319909216911617600155005b346100dd5761074736610354565b50600061075e60018060a01b038254163314610a3d565b600254610775906103d3906001600160a01b031681565b6040516370a0823160e01b8152306004820152906020908183602481845afa9283156104f45784936108a7575b5081836107ee926107b4821515610b3a565b60035460405163095ea7b360e01b81526001600160a01b039091166004820152602481019290925290928391908290889082906044820190565b03925af180156104f457610879575b50506003548290610818906103d3906001600160a01b031681565b6002546001600160a01b03169290803b1561051257604051631e573fb760e31b81526001600160a01b0394909416600485015260248401919091528290604490829084905af180156104f45761086c575080f35b806105066104c2926102d2565b8161089892903d106108a0575b61089081836102eb565b810190610b7b565b5038806107fd565b503d610886565b6107ee9193506108c48391823d84116104ed576104dd81836102eb565b9391506107a2565b346100dd5760003660031901126100dd576003546040516001600160a01b039091168152602090f35b346100dd5760203660031901126100dd57600435610912816100cc565b6001546001600160a01b03919061092c9083163314610ad6565b166001600160601b0360a01b6003541617600355600080f35b346100dd5760003660031901126100dd5760025461096d906103d3906001600160a01b031681565b6040516370a0823160e01b80825230600483015291602091908290829060249082905afa9081156104f457600091610a20575b5060035482906109ba906103d3906001600160a01b031681565b604051948552306004860152849060249082905afa9081156104f4576109fd936109ed93600093610a01575b5050610b93565b6040519081529081906020820190565b0390f35b610a18929350803d106104ed576104dd81836102eb565b9038806109e6565b610a379150823d84116104ed576104dd81836102eb565b386109a0565b15610a4457565b60405162461bcd60e51b815260206004820152600a60248201526913db9b1e481859d95b9d60b21b6044820152606490fd5b908160209103126100dd575190565b6040513d6000823e3d90fd5b15610a9857565b60405162461bcd60e51b81526020600482015260166024820152754e6f2062616c616e636520746f20776974686472617760501b6044820152606490fd5b15610add57565b60405162461bcd60e51b815260206004820152600f60248201526e4f6e6c7920676f7665726e616e636560881b6044820152606490fd5b634e487b7160e01b600052603260045260246000fd5b91908110156106c05760051b0190565b15610b4157565b60405162461bcd60e51b8152602060048201526012602482015271139bc81554d110c81d1bc819195c1bdcda5d60721b6044820152606490fd5b908160209103126100dd575180151581036100dd5790565b91908201809211610ba057565b634e487b7160e01b600052601160045260246000fd5b60405163a9059cbb60e01b60208083019182526001600160a01b039490941660248301526044808301959095529381529092600091610bf66064826102eb565b519082855af115610a85576000513d610c4057506001600160a01b0381163b155b610c1e5750565b604051635274afe760e01b81526001600160a01b039091166004820152602490fd5b60011415610c17565b916000928392602083519301915af1604051903d6000833e15610c695750565b3d90fdfef0c57e16840df040f15088dc2f81fe391c3923bec73e23a9662efc9c229c6a00a2646970667358221220c989085a077be3968a88aa56aa575e25bd0d36bc6da5c675ed62155866b50f7f64736f6c63430008180033",
  "devdoc": {
    "errors": {
      "InvalidInitialization()": [
        {
          "details": "The contract is already initialized."
        }
      ],
      "NotInitializing()": [
        {
          "details": "The contract is not initializing."
        }
      ],
      "SafeERC20FailedOperation(address)": [
        {
          "details": "An operation with an ERC-20 token failed."
        }
      ]
    },
    "events": {
      "Initialized(uint64)": {
        "details": "Triggered when the contract has been initialized or reinitialized."
      }
    },
    "kind": "dev",
    "methods": {},
    "version": 1
  },
  "userdoc": {
    "kind": "user",
    "methods": {},
    "version": 1
  },
  "storageLayout": {
    "storage": [
      {
        "astId": 903,
        "contract": "contracts/modules/arbitrum/CompoundV3USDC/CompoundV3StakingUSDCModules.sol:CompoundV3StakingUSDCModule",
        "label": "treasury",
        "offset": 0,
        "slot": "0",
        "type": "t_address"
      },
      {
        "astId": 905,
        "contract": "contracts/modules/arbitrum/CompoundV3USDC/CompoundV3StakingUSDCModules.sol:CompoundV3StakingUSDCModule",
        "label": "government",
        "offset": 0,
        "slot": "1",
        "type": "t_address"
      },
      {
        "astId": 907,
        "contract": "contracts/modules/arbitrum/CompoundV3USDC/CompoundV3StakingUSDCModules.sol:CompoundV3StakingUSDCModule",
        "label": "usdc",
        "offset": 0,
        "slot": "2",
        "type": "t_address"
      },
      {
        "astId": 909,
        "contract": "contracts/modules/arbitrum/CompoundV3USDC/CompoundV3StakingUSDCModules.sol:CompoundV3StakingUSDCModule",
        "label": "comet",
        "offset": 0,
        "slot": "3",
        "type": "t_address"
      }
    ],
    "types": {
      "t_address": {
        "encoding": "inplace",
        "label": "address",
        "numberOfBytes": "20"
      }
    }
  }
}